:04000000BEEF3EF021
:107D7C0000EE0AF0080EEE6AE806FDE10001D2EF13
:107D8C003EF0016E04D0FA0E00D0E82EFDD70106AD
:107D9C000128D8B41200F7D7F29ED09E0F0E936E26
:107DAC008A680F0EC16EDF0E926E80A802D09268A8
:107DBC00FCD7DF0E926E12EC3FF005C00CF006C043
:107DCC000DF0F00E0C180D10D8B41FD0040EC7EC2B
:107DDC003EF012EC3FF00C50051817E10D50061850
:107DEC00D8A413D00C500F0B896ED00E926E04D009
:107DFC00898A020EC7EC3EF012EC3FF00C500518CD
:107E0C0004E10D500618D8B4F3D7899ADF0E926EA0
:107E1C00040EC7EC3EF0C9D7000E096E000E086EBA
:107E2C00000E096E000E086E095065E1040E085C28
:107E3C00D8B061D008500910D8A402D0100E13D0BD
:107E4C0008040910D8A402D0200E0DD0020E081878
:107E5C000910D8A402D0400E06D0030E0818091041
:107E6C00D8A402D0800E816E81A00FD008C001F082
:107E7C0009C002F0000E046E000E036E86EC3FF09B
:107E8C00076E0750056E066A120081A20FD008C05B
:107E9C0001F009C002F0000E046E010E036E86ECB8
:107EAC003FF0076E0750056E066A120081A40FD0D2
:107EBC0008C001F009C002F0000E046E020E036E41
:107ECC0086EC3FF0076E0750056E066A120081A61D
:107EDC000FD008C001F009C002F0000E046E030EB2
:107EEC00036E86EC3FF0076E0750056E066A1200B3
:107EFC00084A092A99D7000E066EF00E056E12007C
:107F0C0001500210D8A41AD003500410D8A402D0E7
:107F1C00000E120003040410D8A402D0010E1200AB
:107F2C00020E03180410D8A402D0020E1200030E85
:107F3C0003180410D8A41200030E1200010402103E
:107F4C00D8A41AD003500410D8A402D0040E1200E6
:107F5C0003040410D8A402D0050E1200020E03185C
:107F6C000410D8A402D0060E1200030E031804103D
:107F7C00D8A41200070E1200020E01180210D8A489
:107F8C001AD003500410D8A402D0080E1200030417
:107F9C000410D8A402D0090E1200020E031804100B
:107FAC00D8A402D00A0E1200030E03180410D8A491
:107FBC0012000B0E1200030E01180210D8A41200AE
:107FCC0003500410D8A402D00C0E120003040410A9
:107FDC00D8A402D00D0E1200020E03180410D8A45F
:107FEC0002D00E0E1200030E03180410D8A41200B7
:047FFC000F0E120052
:020000040020DA
:08000000FFFFFFFFFFFFFFFF00
:020000040030CA
:0E000000000A1F1FFF8181FF0FC00FE00F409D
:00000001FF
