:0400000007EF00F016
:100008004D8293ED03F0D1EF0DF0900E00019B6F40
:10001800000E00019C6FD8D1250E0001A319D8B499
:1000280005D00001A3519DEC0EF0CED1000E0001C9
:10003800A26F000EA16F000E0001A06F05D0000195
:10004800A08500018E4B8F2B8EC0F6FF8FC0F7FF67
:10005800F86A0800F550300AD8B4F1D78EC0F6FF18
:100068008FC0F7FFF86A0800F55023EC0DF0D8A010
:1000780046D0000E0001A26F000EA16FA1C088F04B
:10008800A2C089F0000E00018B6F0A0E8A6FC2ECC5
:100098000CF088C0A1F089C0A2F0D00E0001966FC4
:1000A800FF0E0001976F8EC0F6FF8FC0F7FFF86A4A
:1000B8000800F5500001986F996B000196510001F6
:1000C80098270001975100019923000198510001D8
:1000D800A127000199510001A22300018E4B8F2B0B
:1000E8008EC0F6FF8FC0F7FFF86A0800F55023ECC2
:1000F8000DF0D8A004D0C2D70001A08F1AD08EC0AE
:10010800F6FF8FC0F7FF00018E4B8F2BF86A0800AF
:10011800F5CFA3F00001A351000AD8B41200640A75
:10012800D8B407D00D0AD8B404D0110AD8B4E4D78B
:100138004BD10001A0BF19D09BC0D9FF9CC0DAFFEA
:10014800DECF9EF0DDCF9FF0020E00019B27000E50
:100158009C2300019FAF59D0030E0001A01300019A
:100168009E6D9F1FD8B09F2B50D09BC0D9FF9CC0BD
:10017800DAFFDECF9EF0DDCF9FF0020E00019B2755
:10018800000E9C2342D0010E0001A36F050E000152
:10019800A319D8B443D00001A351020DFA0EF324D9
:1001A800F66EFE0EF420F76EF86A000EF8220900CB
:1001B800F55000019E5D0900F55000019F59D8A037
:1001C8002DD00001A32BE2D7010E0001A36F040E6E
:1001D8000001A319D8B422D00001A351020D040EC6
:1001E800F324F66EFF0EF420F76EF86A000EF8227C
:1001F8000900F55000019E5D0900F55000019F5966
:10020800D8A00CD00001A32BE2D70001A051800B8D
:10021800000AD8B4B8D7800AD8B4D6D70001A151FB
:100228000001A211D8B40BD0A0C096F0030E0001B3
:100238009617D8B404D00001A107D8A0A207800E51
:100248000001A3BF7F0E0001966F0001A1510001BC
:10025800A35D0001A251800A00019659D8B00BD0C5
:100268000001A3510001A15F000E0001A3BFFF0E12
:100278000001A25B05D0000E0001A26F000EA16F65
:100288000001A0A518D0A0C096F0030E0001961793
:10029800D8B403D02D0E9DEC0EF00001A151000141
:1002A800A211D8B425D0300E9DEC0EF00001A107A4
:1002B800D8A0A207F2D70001A1510001A211D8B419
:1002C8000DD0200E9DEC0EF00001A107D8A0A207CA
:1002D8000001A1510001A211D8A4F3D7A0C096F043
:1002E800030E00019617D8B403D02D0E9DEC0EF026
:1002F800A3C09DF063D000019D51020DFA0EF324B6
:10030800F66EFE0EF420F76EF86A000EF822090069
:10031800F5CF82F00A00F5CF83F09EC080F09FC031
:1003280081F068EC09F080C087F081C088F0000E89
:1003380000018A6F0A0E896F1AEC0BF000018751D1
:10034800300F0001A36F36D09EC080F09FC081F0AF
:1003580000019D51020D040EF324F66EFF0EF420E9
:10036800F76EF86A000EF8220900F5CF82F00A004D
:10037800F5CF83F068EC09F0000180510F0B000104
:100388009A6F00019A51010D3C0EF324F66EFF0E90
:10039800F420F76EF86A000EF8220800F5CFA3F0F3
:1003A80009D00001A051800B000AD8B4A4D7800A54
:1003B800D8B4CAD70001A3519DEC0EF000019D07E7
:1003C80000019D29D8A4EDD78EC0F6FF8FC0F7FF96
:1003D80000018E4B8F2BF86A0800F5CFA3F00001BF
:1003E800A351D8B4120018D60F0E186E000E196E4D
:1003F80088D1250E2018D8B404D02050C9EC0EF0AE
:1004080080D1000E1F6E000E1E6E000E1D6E03D0F2
:100418001D840D4A0E2A0DC0F6FF0EC0F7FFF86ABC
:100428000800F550300AD8B4F3D70DC0F6FF0EC057
:10043800F7FFF86A0800F55052EC0EF0D8A037D054
:10044800000E1F6E000E1E6E1EC001F01FC002F0CF
:10045800000E046E0A0E036EBEEC0DF001C01EF015
:1004680002C01FF0D00E136EFF0E146E0DC0F6FF03
:100478000EC0F7FFF86A0800F550156E166A13509B
:1004880015261450162215501E2616501F220D4AE6
:100498000E2A0DC0F6FF0EC0F7FFF86A0800F550E7
:1004A80052EC0EF0D8A003D0CFD71D8E18D00DC0B7
:1004B800F6FF0EC0F7FF0D4A0E2AF86A0800F5CFBE
:1004C80020F02050000AD8B41200640AD8B407D02B
:1004D8000D0AD8B404D0110AD8B4E7D712D11DBE7A
:1004E80015D018C0D9FF19C0DAFFDECF1BF0DDCF59
:1004F8001CF0020E1826000E19221CAE4AD0030E5C
:100508001D121B6C1C1ED8B01C2A43D018C0D9FF62
:1005180019C0DAFFDECF1BF0DDCF1CF0020E182663
:10052800000E192236D0010E206E050E2018D8B400
:1005380038D02050020DFA0EF324F66EFE0EF42089
:10054800F76EF86A000EF8220900F5501B5C0900E6
:10055800F5501C58D8A025D0202AE7D7010E206EC8
:10056800040E2018D8B41DD02050020D040EF32418
:10057800F66EFF0EF420F76EF86A000EF8220900F6
:10058800F5501B5C0900F5501C58D8A00AD0202A49
:10059800E7D71D50800B000AD8B4C5D7800AD8B455
:1005A800DDD71E501F10D8B409D01DC013F0030E9C
:1005B8001316D8B403D01E06D8A01F06800E20BE7E
:1005C8007F0E136E1E50205C1F50800A1358D8B03F
:1005D80007D020501E5E000E20BEFF0E1F5A04D00A
:1005E800000E1F6E000E1E6E1DA414D01DC013F049
:1005F800030E1316D8B403D02D0EC9EC0EF01E50FE
:100608001F10D8B41ED0300EC9EC0EF01E06D8A0AC
:100618001F06F5D71E501F10D8B40AD0200EC9ECFB
:100628000EF01E06D8A01F061E501F10D8A4F6D71D
:100638001DC013F0030E1316D8B403D02D0EC9EC49
:100648000EF020C01AF059D01A50020DFA0EF324F9
:10065800F66EFE0EF420F76EF86A000EF822090016
:10066800F5CF03F00A00F5CF04F01BC001F01CC061
:1006780002F0A6EC0BF001C008F002C009F0000E71
:100688000B6E0A0E0A6E67EC0CF00850300F206EE5
:1006980031D01BC001F01CC002F01A50020D040E2C
:1006A800F324F66EFF0EF420F76EF86A000EF822B7
:1006B8000900F5CF03F00A00F5CF04F0A6EC0BF023
:1006C80001500F0B176E1750010D3C0EF324F66EF8
:1006D800FF0EF420F76EF86A000EF8220800F5CF36
:1006E80020F008D01D50800B000AD8B4ADD7800A7E
:1006F800D8B4CFD72050C9EC0EF01A061A28D8A4BF
:10070800F1D70DC0F6FF0EC0F7FF0D4A0E2AF86AA2
:100718000800F5CF20F02050D8B412006AD60600A1
:10072800FACF23F0FBCF24F0E9CF25F0EACF26F06B
:10073800E1CF27F0E2CF28F0D9CF29F0DACF2AF09D
:10074800F3CF2BF0F4CF2CF0F6CF2DF0F7CF2EF01F
:10075800F8CF2FF0F5CF30F0F0A02FD1C00ECFECAE
:100768000EF081380F0B0F0B316E3150010DE90E71
:10077800F324F66EFE0EF420F76EF86A000EF822E7
:100788000800F5CF3EF0410E3E18D8A43ED042EC0A
:100798000EF0000E326E090E326401D00ED0020E39
:1007A800226E3F0E216E2B0EE82EFED7212EFCD78F
:1007B800222EFAD700F0322AEED7000E336E090E39
:1007C800336401D00ED0020E226E3F0E216E2B0E26
:1007D800E82EFED7212EFCD7222EFAD700F0332A96
:1007E800EED7000E346E090E346401D0E2D0020E4A
:1007F800226E3F0E216E2B0EE82EFED7212EFCD73F
:10080800222EFAD700F0342AEED7420E3E18D8A48A
:100818003ED0A5EC0CF0000E356E090E356401D003
:100828000ED0020E226E3F0E216E2B0EE82EFED742
:10083800212EFCD7222EFAD700F0352AEED7000E4B
:10084800366E090E366401D00ED0020E226E3F0EAF
:10085800216E2B0EE82EFED7212EFCD7222EFAD79A
:1008680000F0362AEED7000E376E090E376401D035
:10087800A0D0020E226E3F0E216E2B0EE82EFED760
:10088800212EFCD7222EFAD700F0372AEED7430EB6
:100898003E18D8A43ED088EC0CF0000E386E090E35
:1008A800386401D00ED0020E226E3F0E216E2B0E40
:1008B800E82EFED7212EFCD7222EFAD700F0382AB0
:1008C800EED7000E396E090E396401D00ED0020E33
:1008D800226E3F0E216E2B0EE82EFED7212EFCD75E
:1008E800222EFAD700F0392AEED7000E3A6E090EFA
:1008F8003A6401D05ED0020E226E3F0E216E2B0E9E
:10090800E82EFED7212EFCD7222EFAD700F03A2A5D
:10091800EED7440E3E18D8A43ED0F7EC0BF0000EEC
:100928003B6E090E3B6401D00ED0020E226E3F0EC4
:10093800216E2B0EE82EFED7212EFCD7222EFAD7B9
:1009480000F03B2AEED7000E3C6E090E3C6401D045
:100958000ED0020E226E3F0E216E2B0EE82EFED711
:10096800212EFCD7222EFAD700F03C2AEED7000E13
:100978003D6E090E3D6401D01CD0020E226E3F0E62
:10098800216E2B0EE82EFED7212EFCD7222EFAD769
:1009980000F03D2AEED72A0E3E18D8A402D0FF0058
:1009A80008D044EC0CF0DA0E0D6EFF0E0E6EF8EC6B
:1009B80001F0800ECFEC0EF0F09030C0F5FF2FC0A4
:1009C800F8FF2EC0F7FF2DC0F6FF2CC0F4FF2BC098
:1009D800F3FF2AC0DAFF29C0D9FF28C0E2FF27C0E9
:1009E800E1FF26C0EAFF25C0E9FF24C0FBFF23C0C2
:1009F800FAFF4D921100000E0001BD6F000EBC6F92
:100A0800000E0001C96F000EC86FDEEC0EF0000E7C
:100A18000001826FD00E816FD5EC0EF0000E000140
:100A2800826F000E816FD5EC0EF0DAEC0EF0DEEC82
:100A38000EF0000E0001826FD10E816FD5EC0EF022
:100A4800000E0001976F050E0001976501D010D0C8
:100A580000019751010DAB0EF324D96E000EF4205E
:100A6800DA6E010EF6EC0CF0DF6E0001972BEBD777
:100A7800000EF6EC0CF00001B16FDAEC0EF0ADC030
:100A88009AF0ACC099F0ABC098F0BBC090F00F0ED4
:100A980000019017000E0001836F100E826FBBC01B
:100AA80080F00001816B21EC08F080C088F081C0E3
:100AB80089F0000E00018B6F0A0E8A6FC2EC0CF0F1
:100AC80000019051000188250001936F0001000E7C
:100AD800000189210001946F000E0001836F100E40
:100AE800826FBAC080F00001816B21EC08F080C0F1
:100AF80088F081C089F0000E00018B6F0A0E8A6FA2
:100B0800C2EC0CF088C090F089C091F0BAC092F0A5
:100B18000F0E000192170001925100019027000E5C
:100B2800912393C088F094C089F0000E00018B6F68
:100B38003C0E8A6FC2EC0CF000018851000190272E
:100B4800000189510001912390C0B6F091C0B7F01F
:100B58000001000EB7BFFF0EB86FB96F99C090F0D3
:100B68000F0E00019017000E0001836F100E826FA8
:100B780099C080F00001816B21EC08F080C088F0FA
:100B880081C089F0000E00018B6F0A0E8A6FC2ECDB
:100B98000CF000019051000188250001936F0001BD
:100BA800000E000189210001946F000E0001836F7F
:100BB800100E826F98C080F00001816B21EC08F064
:100BC80080C088F081C089F0000E00018B6F0A0E8A
:100BD8008A6FC2EC0CF088C090F089C091F098C080
:100BE80092F00F0E00019217000192510001902718
:100BF800000E912393C088F094C089F0000E000184
:100C08008B6F3C0E8A6FC2EC0CF00001885100011A
:100C18009027000189510001912390C0B2F091C042
:100C2800B3F00001000EB3BFFF0EB46FB56FB6C0CE
:100C380090F0B7C091F00001901F911F904B912B3D
:100C48000001B251000190250001956F0001B351D8
:100C5800000191210001966F000196BF07D00001A5
:100C680096510EE100019505D8B00AD0100E00018A
:100C780095250001956F0E0E000196210001966FD3
:100C880095C08EF096C08FF012000001C05100018F
:100C9800C2250001A46F0001C1510001C321000158
:100CA800A56F0001C4510001A4270001C55100012E
:100CB800A5230001C6510001A425436E0001C751B8
:100CC8000001A521446E800EA5EC0EF01FEC0CF07F
:100CD80000F000F04D0E00018E6FFF0E00018F6FC7
:100CE80009EC00F0C00EA5EC0EF05E0E00018E6F50
:100CF800FF0E00018F6F09EC00F0F28E000E00016C
:100D0800A86F090E0001A86501D010D0020E0001DD
:100D1800A56F3F0E0001A46F2B0EE82EFED7A42F5F
:100D2800FCD7A52FFAD70001A82BEBD7000E00019E
:100D3800A96F090E0001A96501D010D0020E0001AB
:100D4800A56F3F0E0001A46F2B0EE82EFED7A42F2F
:100D5800FCD7A52FFAD70001A92BEBD7F29E1FECE1
:100D68000CF000F000F06F0E00018E6FFF0E000116
:100D78008F6F09EC00F0F28E000E0001AA6F090EC9
:100D88000001AA6501D010D0020E0001A56F3F0E28
:100D98000001A46F2B0EE82EFED7A42FFCD7A52F99
:100DA800FAD70001AA2BEBD7F29E81380F0B0F0B55
:100DB8000001A66F0001A651010DE90EF324F66E9D
:100DC800FE0EF420F76EF86A000EF8220800F5CF40
:100DD800A7F0300E0001A719D8A475D7000E00019E
:100DE800C76F000EC66FC6C0C4F0C7C0C5F0C4C088
:100DF800C0F0C5C0C1F0C0C0C2F0C1C0C3F012008D
:100E0800F29E800EA5EC0EF01FEC0CF000F000F046
:100E1800DEEC0EF0000E0001826FD00E816FD5EC73
:100E28000EF0000E0001826F000E816FD5EC0EF0FF
:100E3800DAEC0EF0DEEC0EF0000E0001826FD10E3F
:100E4800816FD5EC0EF0000E0001A96F050E0001B0
:100E5800A96501D010D00001A951010DAB0EF324F2
:100E6800D96E000EF420DA6E010EF6EC0CF0DF6E8F
:100E78000001A92BEBD7000EF6EC0CF00001B16FC6
:100E8800DAEC0EF0800EA5EC0EF0CF0E00018E6F9E
:100E9800FF0E00018F6FB0C090F00001916BAFC0E2
:100EA80092F00001936B09EC00F0C00E00018E6F08
:100EB800FF0E00018F6FADC090F00001916BACC0C8
:100EC80092F00001936BABC094F00001956B09ECB4
:100ED80000F0C00EA5EC0EF0800E00018E6FFF0E24
:100EE80000018F6F09EC00F081380F0B0F0B000128
:100EF800A66F81B2FED70001A651010DE90EF324B9
:100F0800F66EFE0EF420F76EF86A000EF82208005E
:100F1800F5CFA7F0230E0001A719D8A407D0ADC0BC
:100F2800BCF0ACC0BBF0ABC0BAF01200000E0001C0
:100F3800A86F090E0001A86501D06AD7020E00014A
:100F4800A56F3F0E0001A46F2B0EE82EFED7A42F2D
:100F5800FCD7A52FFAD70001A82BEBD781EC0AF014
:100F680001D80AD00500FA6E0001D051FD6ED151AA
:100F7800FE6EFF6AFA50120001D80AD00500FA6E18
:100F88000001CA51FD6ECB51FE6EFF6AFA50120085
:100F980001D80AD00500FA6E0001CE51FD6ECF517E
:100FA800FE6EFF6AFA50120001D80AD00500FA6EE8
:100FB8000001CC51FD6ECD51FE6EFF6AFA50120051
:100FC8008D900B0E0001A86F260E0001A76F5D0E15
:100FD800E82EFED7A72FFCD7A82FFAD700D08D80F0
:100FE8000001C95105E1280E0001C85DD8A0B8D795
:100FF800800EA5EC0EF01FEC0CF0F60E00018E6FC3
:10100800FF0E00018F6F09EC00F0000E0001A96FC0
:10101800090E0001A96501D01200020E0001A86F97
:101028003F0E0001A76F2B0EE82EFED7A72FFCD787
:10103800A82FFAD70001A92BEBD7000E0001856F66
:10104800000183AF08D00001826D831FD8B0832BC5
:10105800010E0001856F000181AF08D00001806D8D
:10106800811FD8B0812B010E0001851B000E0001E5
:10107800876F000E866F0001825100018311D8B47A
:101088002CD0010E0001846F06D00001D890823761
:1010980083370001842B000183AFF7D70001D89074
:1010A80086378737000182510001805D0001835136
:1010B80000018159D8A00AD0000182510001805F47
:1010C800000183510001815B000186810001D890F5
:1010D800833382330001842FE1D700018551000159
:1010E800D8B405D00001866D871FD8B0872B86C07D
:1010F80080F087C081F01200000E0001886F000E9A
:10110800896F000E8A6F000E8B6F000184510001F9
:1011180085110001861100018711D8B442D0010E53
:1011280000018C6F08D00001D89084378537863746
:10113800873700018C2B000187AFF5D70001D890C5
:10114800883789378A378B37000184510001805DE1
:101158000001855100018159000186510001825921
:101168000001875100018359D8A012D00001845191
:101178000001805F000185510001815B00018651FB
:101188000001825B000187510001835B00018881B7
:101198000001D890873386338533843300018C2F40
:1011A800CDD788C080F089C081F08AC082F08BC01A
:1011B80083F01200F60E926EF20E936E1F0E946E6E
:1011C800000E956E000E966EF60E896E89948996BD
:1011D800000E8A6E000E8B6E010E8C6E080E8D6EE0
:1011E800000EC26EC1681FEC0CF000F000F0F08633
:1011F800100E00018D6F270E8E6F000E8F6F000E80
:10120800906F4BEC0BF0E9EC0AF004EC07F0B2EC51
:1012180007F0FFEC04F08EC045F08FC046F000F0F8
:1012280000F0F60E896E89948996000E8A6E000E7B
:101238008B6E010E8C6E080E8D6E49EC06F0E5D7AC
:1012480000F000F0000E066E04AE06D0036C041E1B
:10125800D8B0042A010E066E02AE06D0016C021E3A
:10126800D8B0022A010E061A000E086E000E076E8C
:1012780003500410D8B41CD0010E056E04D0D890C9
:1012880003360436052A04AEFAD7D890073608364E
:101298000350015C04500258D8A005D00350015EE9
:1012A8000450025A0780D89004320332052EEDD735
:1012B8000650D8B404D0076C081ED8B0082A07C056
:1012C80001F008C002F01200000E0001866F000E47
:1012D800856F0001825100018311D8B42CD0010E12
:1012E8000001846F06D00001D8908237833700014F
:1012F800842B000183AFF7D70001D8908537863754
:10130800000182510001805D000183510001815973
:10131800D8A00AD0000182510001805F00018351EA
:101328000001815B000185810001D89083338233FD
:101338000001842FE1D785C080F086C081F01200BB
:10134800000E0001836F000E826F000183BF08D07A
:10135800000183512AE1060E0001825DD8B025D034
:1013680089808996020E0001816F140E0001806F3A
:10137800F60EE82EFED7802FFCD7812FFAD700F083
:1013880089908996210E0001806F760EE82EFED78F
:10139800802FFCD700F00001824B832B000183BF14
:1013A800DFD70001835101E1D6D7899089961200D1
:1013B800000E0001836F000E826F000183BF08D00A
:1013C800000183512AE1060E0001825DD8B025D0C4
:1013D8008A848A96020E0001816F140E0001806FC4
:1013E800F60EE82EFED7802FFCD7812FFAD700F013
:1013F8008A948A96210E0001806F760EE82EFED719
:10140800802FFCD700F00001824B832B000183BFA3
:10141800DFD70001835101E1D6D78A948A9612005A
:10142800000E066E02AE06D0016C021ED8B0022A6B
:10143800010E066E04AE04D0036C041ED8B0042A54
:1014480003500410D8B418D0010E056E04D0D890FB
:1014580003360436052A04AEFAD70350015C04505B
:101468000258D8A004D00350015E0450025AD89004
:1014780004320332052EF1D70650D8B404D0016CDB
:10148800021ED8B0022A01C001F002C002F0120008
:1014980080A204D00001C84BC92B1200000E000125
:1014A800C96F000EC86F82A404D00001806B802B26
:1014B80002D00001806B00018051476E486A475096
:1014C8004810D8B408D0000E4A6E010E496E0001CB
:1014D800C64BC72B07D0000E4A6E000E496E00019E
:1014E800C44BC52B000E4C6E010E4B6E160E000140
:1014F800CA6F1D0E0001CB6F1200000E0001BD6FF8
:10150800000EBC6F1FEC0CF0800EA5EC0EF0DC0E8C
:1015180000018E6FFF0E00018F6F09EC00F0000EC6
:101528000001A66F090E0001A66501D010D0020EB9
:101538000001A56F3F0E0001A46F2B0EE82EFED709
:10154800A42FFCD7A52FFAD70001A62BEBD78D80A7
:10155800ADEC0EF0BBEC0EF0B4EC0EF0C2EC0EF0FD
:1015680012000001816F00018151F00B0001806FB2
:101578008C500F0B8C6E000180518C108C6E8C96E9
:10158800140EE82EFED700D08C86140EE82EFED757
:1015980000D000018139F00B0001816F00018151F9
:1015A800F00B0001806F8C500F0B8C6E0001805186
:1015B8008C108C6E8C96140EE82EFED700D08C867C
:1015C800140EE82EFED700D01200DEEC0EF0000E4E
:1015D8000001826FD00E816FD5EC0EF0000E000175
:1015E800826F000E816FD5EC0EF0000E0001836F44
:1015F800060E0001836501D016D000018351010D4C
:101608000C0EF324F66EFF0EF420F76EF86A000E47
:10161800F8220800F5500001816F826BD5EC0EF0BE
:101628000001832BE5D7DAEC0EF012000001895196
:1016380000018A11D8B426D0010E00018B6F06D0A4
:101648000001D89089378A3700018B2B00018AAFB7
:10165800F7D7000189510001875D00018A51000117
:101668008859D8A008D0000189510001875F00017E
:101678008A510001885B0001D8908A3389330001C0
:101688008B2FE7D787C087F088C088F01200000E3C
:10169800C76E280EC66E000EC56E800E0001806FE4
:1016A800960E816F980E826F000E836F8DC091F039
:1016B8008EC092F08FC093F090C094F0020ED89034
:1016C80000019137923793379437E82EF8D791C0B5
:1016D80084F092C085F093C086F094C087F080ECC7
:1016E80008F000018005C86E948694881200026E86
:1016F8000250F00B016E8C500F0B8C6E01508C1049
:101708008C6E8C96140EE82EFED700D08C86140EA4
:10171800E82EFED700D00238F00B026E0250F00B14
:10172800016E8C500F0B8C6E01508C108C6E8C9649
:10173800140EE82EFED700D08C86140EE82EFED7A5
:1017480000D01200000E066E000E056E0350041045
:10175800D8B41CD0010E076E04D0D89003360436D6
:10176800072A04AEFAD7D890053606360350015C2E
:1017780004500258D8A005D00350015E0450025A04
:101788000580D89004320332072EEDD705C001F04A
:1017980006C002F0120082A204D00001826B822BE4
:1017A80002D00001826B00018251416E426A4150B1
:1017B8004210D8B408D0000E406E010E3F6E0001F2
:1017C800C04BC12B07D00001C24BC32B000E406E8B
:1017D800000E3F6E12EC0EF0C20E0001D06F1C0E10
:1017E8000001D16F1200800ECFEC0EF044EC0CF02B
:1017F800130E0D6EFF0E0E6E45C001F046C002F0CE
:10180800000E046E3C0E036E26EC09F001C00FF0CA
:1018180002C010F045C001F046C002F0000E046E90
:101828003C0E036E14EC0AF001C011F002C012F075
:10183800F8EC01F01200310E0001836FB20EE82EB1
:10184800FED7832FFCD700F0330EA5EC0EF0320E36
:10185800A5EC0EF0280EA5EC0EF00F0EA5EC0EF080
:10186800060EA5EC0EF0010EA5EC0EF0310E0001EF
:10187800836FB20EE82EFED7832FFCD700F012003C
:10188800310E046EB20EE82EFED7042EFCD700D01F
:10189800330ECFEC0EF0320ECFEC0EF0280ECFEC5C
:1018A8000EF00F0ECFEC0EF0060ECFEC0EF0010E80
:1018B800CFEC0EF0310E046EB20EE82EFED7042ED9
:1018C800FCD700D012000A500B10D8B418D0010E63
:1018D8000C6E04D0D8900A360B360C2A0BAEFAD709
:1018E8000A50085C0B500958D8A004D00A50085E6A
:1018F8000B50095AD8900B320A320C2EF1D708C077
:1019080008F009C009F01200800ECFEC0EF044EC8C
:101918000CF0910E0D6EFF0E0E6EC4C00FF0C5C018
:1019280010F0F8EC01F0C00ECFEC0EF0B10E0D6E19
:10193800FF0E0E6EC6C00FF0C7C010F0F8EC01F035
:101948001200800ECFEC0EF044EC0CF0A20E0D6EDF
:10195800FF0E0E6EC0C00FF0C1C010F0F8EC01F021
:10196800C00ECFEC0EF0E90E0D6EFF0E0E6EC2C06B
:101978000FF0C3C010F0F8EC01F01200000188511C
:1019880000018A03F3CF8CF0F4CF8DF00001885169
:1019980000018B03F35000018D27000189510001DC
:1019A8008A03F35000018D278CC088F08DC089F020
:1019B80012000001BE050001BF11D8A40CD0E40E2E
:1019C8000001CE6F1B0E0001CF6F000E0001BF6F2C
:1019D800000EBE6F1200BA0E0001CE6F190E000184
:1019E800CF6F12000001816F6FEC0EF0C5866FECAF
:1019F8000EF0C9CF82F06FEC0EF0000181510001AA
:101A0800D8A402D0C58A01D0C59AC58800018251E0
:101A180012004B044C10D8A40BD0640E0001CC6FFC
:101A28001C0E0001CD6F000E4C6E000E4B6E1200A6
:101A38001A0E0001CC6F1A0E0001CD6F12000001C2
:101A4800826F000E0001816F3A0E0001826107D09B
:101A58002F0E0001826503D0010E0001816F81C045
:101A680080F00001803112001FEC0CF080A404D03B
:101A78000001BC4BBD2B1200F20E0001D06F1C0EF2
:101A88000001D16F000E0001BD6F000EBC6F120087
:101A980089908986070E0001816F580E0001806FBA
:101AA800590EE82EFED7802FFCD7812FFAD700D009
:101AB8008990899612008B9A8B8C070E0001816F92
:101AC800580E0001806F590EE82EFED7802FFCD7E4
:101AD800812FFAD700D08B9A8B9C12008B8A8B9C13
:101AE800070E0001816F580E0001806F590EE82E15
:101AF800FED7802FFCD7812FFAD700D08B9A8B9CEA
:101B080012008A948A86070E0001816F580E000120
:101B1800806F590EE82EFED7802FFCD7812FFAD779
:101B280000D08A948A9612008C928A80070E00014F
:101B3800816F580E0001806F590EE82EFED7802F56
:101B4800FCD7812FFAD700D08C928A9012008C8211
:101B58008A90070E0001816F580E0001806F590EA0
:101B6800E82EFED7802FFCD7812FFAD700D08C9291
:101B78008A90120001500302F3CF05F0F4CF06F06B
:101B880001500402F350062602500302F3500626C1
:101B980005C001F006C002F0120000EEABF0270EFF
:101BA800EE6AE806FDE100EE3FF00E0EEE6AE8068A
:101BB800FDE14D904D920001DEEF08F03F0440102A
:101BC800D8A403D072EC0DF002D05FEC0DF0BA0E81
:101BD8000001CE6F190E0001CF6F12003F044010B4
:101BE800D8A403D05FEC0DF002D072EC0DF0C40E57
:101BF8000001CE6F1B0E0001CF6F12008C900D0EEE
:101C08000001816FAF0E0001806FB60EE82EFED77F
:101C1800802FFCD7812FFAD700F012008C800D0E90
:101C28000001816FAF0E0001806FB60EE82EFED75F
:101C3800802FFCD7812FFAD700F0120049044A10F0
:101C4800D8A403D0ABEC0DF002D098EC0DF01A0E2E
:101C58000001CC6F1A0E0001CD6F120049044A1022
:101C6800D8A403D098EC0DF002D0ABEC0DF0440EE4
:101C78000001CC6F1C0E0001CD6F1200800ECFEC5E
:101C88000EF044EC0CF0290E0D6EFF0E0E6E43C0E4
:101C98000FF044C010F0F8EC01F01200036E000ED3
:101CA800026E3A0E036005D02F0E036402D0010EB7
:101CB800026E02C001F001301200A4EC09F0040E1B
:101CC8000001D06F1D0E0001D16F000E0001BF6F23
:101CD800010EBE6F1200C7B4FED7C5CF80F01F0E2D
:101CE80000018017D8B41200F6D702EC0EF09E0E51
:101CF8000001D06F170E0001D16F12004CEC0DF0EF
:101D0800700E0001D06F1A0E0001D16F1200DCECCA
:101D180009F0280E0001CA6F1D0E0001CB6F1200DA
:101D280085EC0DF0980E0001CA6F140E0001CB6F00
:101D380012000001826F8C8400018251B5EC0AF018
:101D480012000001826F8C9400018251B5EC0AF0F8
:101D58001200700E0001D06F1A0E0001D16F120030
:101D6800BA0E0001CE6F190E0001CF6F1200980E47
:101D78000001CA6F140E0001CB6F12001A0E000189
:101D8800CC6F1A0E0001CD6F1200036E8C840350C5
:101D98007BEC0BF01200036E8C9403507BEC0BF081
:101DA80012006FEC0EF081C0C9FF12006FEC0EF04C
:0C1DB800C58412006FEC0EF0C580120014
:10FEE800003132334134353642373839432A3023EA
:10FEF800440001000A006400E80310270100100014
:10FF0800000100104559170431021754696D653A0C
:10FF18002025303164206D696E20253032642073CD
:10FF280000546F74616C20536F727465643A2025B5
:10FF3800303278003031323334353637383961620F
:10FF48006364656600413A546F74616C20202042F6
:10FF58003A506F702000433A54696E2020202020C8
:10FF6800443A54696D65005072657373203020748B
:10FF78006F20526573657400507265737320232077
:10FF8800746F2053746172740057697468204C61EF
:10FF980062656C3A202530327800576974682054BD
:10FFA80061623A2025303278004E6F204C616265DC
:10FFB8006C3A202530327800253032783A253032B4
:10FFC800783A2530327800253032782F253032784B
:10FFD80020202000496E697469616C697A696E67CE
:10FFE800004E6F205461623A202530327800436F0A
:08FFF8006D706C65746500007A
:020000040020DA
:08000000FFFFFFFFFFFFFFFF00
:020000040030CA
:0E000000FF021F1EFF8381FF0FC00FE00F40A5
:00000001FF
