:04000000C2EF08F053
:0B1000000048494748004C4F570000D3
:10100C009268000E936E000E946E000E956E000E9C
:10101C00966E000E896E000E8A6E000E8B6E000EA0
:10102C008C6E000E8D6E000EC26EC168F19E80A497
:10103C0020D0800ECFEC08F08AEC08F0010E046E84
:10104C00100E056EADEC08F0000E0B6E090E0B6465
:10105C0002D000EF00F0020E0A6E3F0E096E2B0E4E
:10106C00E82EFED7092EFCD70A2EFAD700F00B2A51
:10107C00EDD7800ECFEC08F08AEC08F0060E046E6B
:10108C00100E056EADEC08F0000E0C6E090E0C6423
:10109C0002D000EF00F0020E0A6E3F0E096E2B0E0E
:1010AC00E82EFED7092EFCD70A2EFAD700F00C2A10
:1010BC00EDD7026E0250F00B016E8C500F0B8C6E44
:1010CC0001508C108C6E8C96140EE82EFED700D02E
:1010DC008C86140EE82EFED700D00238F00B026E70
:1010EC000250F00B016E8C500F0B8C6E01508C105B
:1010FC008C6E8C96140EE82EFED700D08C86140EB7
:10110C00E82EFED700D01200310E046EB20EE82E7F
:10111C00FED7042EFCD700D0330ECFEC08F0320EE5
:10112C00CFEC08F0280ECFEC08F00F0ECFEC08F047
:10113C00060ECFEC08F0010ECFEC08F0310E046E69
:10114C00B20EE82EFED7042EFCD700D01200060EED
:10115C00066E000E076E03D00850C9EC08F004C0F0
:10116C00F6FF05C0F7FF044A052A0800F5CF08F082
:10117C000850D8B41200F0D7000EF86E100EF76EAF
:10118C00000106EF08F0036E8C8403505FEC08F04E
:0E119C001200036E8C9403505FEC08F01200FA
:020000040020DA
:08000000FFFFFFFFFFFFFFFF00
:020000040030CA
:0E000000FF021F1EFF8381FF0FC00FE00F40A5
:00000001FF
