:04000000FCEF75F0AC
:10EBF600FFD7740EF66EED0EF76E000EF86E01EE90
:10EC060000F010EEF6F00900F5CFEEFFE550E1500A
:10EC1600FAE1F40EF66EEC0EF76E000EF86E00EEEC
:10EC260080F010EE80F00900F5CFEEFFE550E150E0
:10EC3600FAE1760EF66EEC0EF76E000EF86E00EE4A
:10EC460001F010EE7EF00900F5CFEEFFE550E15041
:10EC5600FAE10CEEC4F012EEBCF0EE6AE550E150BB
:10EC6600FCE1E250FAE1000EF86E0001FBEF75F0F0
:10EC7600010002000300040005000600070008006A
:10EC860009000A000B000C000D0001020304050632
:10EC96000708090A640B0C0D0E0F10111213141538
:10ECA600161718191A1B1C1D1E1F20212223242586
:10ECB600262728292A2B2C2D2E2F30313233343576
:10ECC600363738393A3B3C3D3E3F40414243444566
:10ECD600464748494A4B4C4D4E4F50515253545556
:10ECE600565758595A5B5C5D5E5F606162630E0001
:10ECF6000F0010001100120013001400150016007A
:10ED06001700180019001A001B001C001D001E0029
:10ED16001F002000210022002300240025002600D9
:10ED26002700280029002A002B002C002D002E0089
:10ED36002F00300031003200330034003500360039
:10ED46003700380039003A003B003C003D003E00E9
:10ED56003F00400041004200430044004500460099
:10ED66004700480049004A004B004C004D00640033
:10ED76004E004F0050005100520053005400550001
:10ED860056005700580059005A005B005C005D00B1
:10ED96005E005F0060006100620063000100020027
:10EDA60003000400050006000700080009000A0029
:10EDB6000B000C000D000E000F00100011001200D9
:10EDC60013001400150016001700180019001A0089
:10EDD6001B001C001D001E001F0020002100220039
:10EDE60023002400250026002700280029002A00E9
:10EDF6002B002C002D002E002F0030003100320099
:10EE060033003400350036003700380039003A0048
:10EE16003B003C003D003E003F00400041004200F8
:10EE260043004400450046004700480049004A00A8
:10EE36004B004C004D004E004F0050005100520058
:10EE460053005400550056005700580059005A0008
:10EE56005B005C005D005E005F00600061006200B8
:10EE660063006400005500000055000000550000D6
:10EE76000055000000550000005500000055000038
:10EE86000055000000550000005500000055000028
:10EE96000055000000550000005500000055000018
:10EEA6000055000000550000005500000055000008
:10FE06000055000000010002000300040005000682
:10FE1600000700080009000A000B000C000D000E88
:10FE2600000F001000110012001300140015001638
:10FE3600001700180019001A001B001C001D001EE8
:10FE4600001F002000210022002300240025002698
:10FE5600002700280029002A002B002C002D002E48
:10FE6600002F0030003100320033003400350036F8
:10FE7600003700380039003A003B003C003D003EA8
:10FE8600003F004000410042004300440045004658
:10FE9600004700480049004A004B004C004D004E08
:10FEA600004F0050005100520053005400550056B8
:10FEB600005700580059005A005B005C005D005E68
:10FEC600005F006000610062006300640065006618
:10FED600006700680069006A006B006C006D006EC8
:10FEE600006F007000710072007300740075007678
:10FEF600007700780079007A007B007C007D007E28
:10FF0600007F0080008100820083008400850086D7
:10FF1600008700880089008A008B008C008D008E87
:10FF2600008F009000910092009300940095009637
:10FF3600009700980099009A009B009C009D009EE7
:10FF4600009F00A000A100A200A300A400A500A697
:10FF560000A700A800A900AA00AB00AC00AD00AE47
:10FF660000AF00B000B100B200B300B400B500B6F7
:10FF760000B700B800B900BA00BB00BC00BD00BEA7
:10FF860000BF00C000C100C200C300C400C500C657
:10FF960000C700C8000102030405060708090A6431
:10FFA6000B0C0D0E0F101112131415161718191A23
:10FFB6001B1C1D1E1F202122232425262728292A13
:10FFC6002B2C2D2E2F303132333435363738393A03
:10FFD6003B3C3D3E3F404142434445464748494AF3
:10FFE6004B4C4D4E4F505152535455565758595AE3
:0AFFF6005B5C5D5E5F6061626300AA
:020000040020DA
:0800000005040302FFFFFFFFEE
:020000040030CA
:0E000000FF021F1FFF8381FF0FC00FE00F40A4
:00000001FF
