:0400000084EF08F091
:0F1000000048656C6C6F20776F726C6421000084
:10101000046E110E036E3A0EE82EFED7032EFCD797
:1010200000D0000E016E045066EC08F00438F00B9E
:10103000046E040E036E3E0EE82EFED7032EFCD780
:10104000000E016E045066EC08F01200046E110EE2
:10105000036E3A0EE82EFED7032EFCD700D0010E09
:10106000016E045066EC08F00438F00B046E010EBB
:10107000016E045066EC08F012000AD005C0F6FFBD
:1010800006C0F7FF0800F55026EC08F0054A062ACE
:1010900005C0F6FF06C0F7FF0800F5500009D8B4F8
:1010A0001200ECD7000E836E000E956E320E08EC27
:1010B00008F0280E08EC08F00C0E08EC08F0010E01
:1010C00008EC08F0060E08EC08F01200026E025060
:1010D000F00B026E83500F0B836E83500210836EF1
:1010E00001B002D0839401D083848386839612005A
:1010F00052EC08F0010E08EC08F0010E056E100E1F
:10110000066E3DEC08F0FFD7000EF86E100EF76E7D
:06111000000178EF08F079
:020000040020DA
:08000000FFFFFFFFFFFFFFFF00
:020000040030CA
:0E000000FF021F1FFF8381FF0FC00FE00F40A4
:00000001FF
