:04000000DBEF7CF0C6
:10F9B600426A416A000117EF7DF0BD9EBD9CBD867F
:10F9C600BD84BD92BD90CA849490120009C001F016
:10F9D6000AC002F0036A8E0E046E000E056EDCECA1
:10F9E6007DF001C009F002C00AF003C00BF012005E
:10F9F600000E186E16AE06D0156C161ED8B0162A56
:10FA0600010E186E15C001F016C002F0036A8E0EC4
:10FA1600046E18C005F0DCEC7DF001C015F002C0E4
:10FA260016F003C017F01200D3507009D36E9B8CEA
:10FA36001C0E0F6E0C0E106E000E116E000E126E66
:10FA46005AEC7DF0E0EC7CF0010E946E030E3A6EFB
:10FA5600FE0E396E8FEC7DF0000E936E00EF00F017
:10FA6600000E016E480E026EE80E036E010E046E65
:10FA76003DC011F03EC012F03FC013F040C014F07C
:10FA8600040ED8901136123613361436E82EF9D7EE
:10FA960011C005F012C006F013C007F014C008F03C
:10FAA60033EC7EF001C00FF002C010F01200000E21
:10FAB600016E480E026EE80E036E010E046E0FC054
:10FAC60013F010C014F011C015F012C016F0020E9B
:10FAD600D8901336143615361636E82EF9D7040E96
:10FAE600D8901336143615361636E82EF9D713C0C5
:10FAF60005F014C006F015C007F016C008F033EC88
:10FB06007EF00104CB6E0FC03DF010C03EF011C078
:10FB16003FF012C040F01200040E3A5CD8B012005A
:10FB260033EC7DF00FC015F010C016F0FBEC7CF046
:10FB360015C01EF016C01FF017C020F0C00E0F6EC5
:10FB46007F0E106E440E116E39C009F03AC00AF0ED
:10FB5600E9EC7CF009C00CF00AC00DF00BC00EF009
:10FB660099EC7EF00CC01BF00DC01CF00EC01DF011
:10FB76000CEC7FF01BC02AF01CC02BF01DC02CF033
:10FB860086EC7FF02AC039F02BC03AF0BD9A39A036
:10FB960002D0BD8801D0BD9839C03BF03AC03CF0D8
:10FBA600D8903C323B32D8903C323B323B50BE6E12
:10FBB60012000450D8B405D0015002100310D8A486
:10FBC6000CD0000E016E000E026E000E036E1200C7
:10FBD600042AD890033202320132000E0114066E56
:10FBE600000E0214076EFE0E0314086E0650071070
:10FBF6000810D8B40CD0ECD7042A010E0126000E4A
:10FC06000222000E0322D890033202320132000E85
:10FC16000114066E000E0214076EFF0E0314086E22
:10FC2600065007100810D8B406D0E6D70406D890B8
:10FC360001360236033602BE03D0020E0460F6D742
:10FC460004A0029ED8900432045003120550D8A492
:10FC5600038E01C001F002C002F003C003F01200DF
:10FC6600000E0A6E08AE0AD0081E071E061E056C98
:10FC7600000E062207220822010E0A6E04AE0AD0E2
:10FC8600041E031E021E016C000E02220322042221
:10FC9600010E0A1A000E0B6E000E0C6E000E0D6E93
:10FCA600000E0E6E0550061007100810D8B42AD0A4
:10FCB600010E096E06D0D890053606360736083688
:10FCC600092A08AEF8D7D8900B360C360D360E3604
:10FCD6000550015C06500258075003580850045856
:10FCE600D8A009D00550015E0650025A0750035AA3
:10FCF6000850045A0B80D890083207320632053273
:10FD0600092EE1D70A50D8B408D00E1E0D1E0C1EBF
:10FD16000B6C000E0C220D220E220BC001F00CC043
:10FD260002F00DC003F00EC004F012000EC012F077
:10FD3600136A146A0D34123601E313801250196ED9
:10FD46001950D8A407D0000E0C6E000E0D6E000ED2
:10FD56000E6E120011C012F0136A146A10341236B5
:10FD660001E3138012501A6E1A50D8A407D0000E61
:10FD76000C6E000E0D6E000E0E6E1200000E166E4C
:10FD8600000E176E000E186E1A50890F195E0EC0FF
:10FD96001AF011501A1A800E1A160D8EFF0E0C1636
:10FDA600FF0E0D16000E0E16108EFF0E0F16FF0E0E
:10FDB6001016000E1116180E156ED8901636173638
:10FDC60018360F500C5C10500D5811500E58D8A014
:10FDD60007D00F500C5E10500D5A11500E5A168057
:10FDE600D8900C360D360E36152EE7D716C001F014
:10FDF60017C002F018C003F019C004F01AC005F0CD
:10FE0600DCEC7DF001C00CF002C00DF003C00EF07A
:10FE160012001DC021F0226A236A1C34213601E338
:10FE260022802150246E2450D8A407D0000E1B6EC9
:10FE3600000E1C6E000E1D6E120020C021F0226AFC
:10FE4600236A1F34213601E322802150296E29506E
:10FE5600D8A407D0000E1B6E000E1C6E000E1D6E81
:10FE6600120029507B0F24261DC029F02050291A84
:10FE7600800E29161C8E1F8EFF0E1E16FF0E1F16D5
:10FE8600000E2016000E256E000E266E000E276E42
:10FE9600070E286E1BA006D01E5025261F502622B0
:10FEA60020502722D8901D321C321B32D8901E3685
:10FEB6001F362036282EEED7090E286E1BA006D038
:10FEC6001E5025261F50262220502722D8901D324C
:10FED6001C321B32D890273226322532282EEED7F6
:10FEE60025C001F026C002F027C003F024C004F0AC
:10FEF60029C005F0DCEC7DF001C01BF002C01CF04F
:10FF060003C01DF012002CC02EF02F6A306A2B346D
:10FF16002E3601E32F802E50386E3850D8A409D0E3
:10FF2600000E2A6E000E2B6E000E2C6E000E2D6E2D
:10FF36001200170E2E6E2AC02FF02BC030F02CC0E8
:10FF460031F02E28326E04D0D890313230322F3232
:10FF5600322EFAD72F50336E2B8EFF0E2A16FF0E37
:10FF66002B16000E2C162A50346E2B50356E2C5044
:10FF7600366E376A8E0E385E38AE16D03850800A26
:10FF86008F0FD8B009D0000E2A6E000E2B6E000E11
:10FF96002C6E000E2D6E1200D89037323632353266
:10FFA6003432383EF9D715D0170E38640FD0000E0C
:10FFB6002A6E000E2B6E000E2C6E000E2D6E120099
:10FFC600D890343635363636373638063850D8A4D3
:10FFD600F7D73350D8B408D0371E361E351E346CCA
:10FFE600000E35223622372234C02AF035C02BF0D7
:0AFFF60036C02CF037C02DF01200C9
:020000040020DA
:08000000FFFFFFFFFFFFFFFF00
:020000040030CA
:0E000000FF091F1FFF8381FF0FC00FE00F409D
:00000001FF
