:060000000A128A11FC2F18
:100EB000F201F30100307302323003197202031899
:100EC0000800831203130614E430F000672F682F24
:100ED000F00B662F6B2F00008312031306103230C5
:100EE000F100DD30F000F00B732FF10B732F782F32
:100EF0000130F2070318F30A0030F3075A2FF2010A
:100F0000F301003073023230031972020318080033
:100F10008312031306140630F100B530F000F00B15
:100F20008F2FF10B8F2F942F8312031306102F3066
:100F3000F1003A30F000F00B9B2FF10B9B2F0000DB
:100F40000130F2070318F30A0030F307812FF20192
:100F5000F3010030730232300319720203180800E3
:100F60008312031306140430F100E430F000F00B98
:100F7000B72FF10BB72F0000831203130610313087
:100F8000F1000B30F000F00BC32FF10BC32FC82F73
:100F90000130F2070318F30A0030F307A92F831674
:100FA000031386010A128A1158270A128A11153072
:100FB000F6004B30F500D130F400F40BDD2FF50BCB
:100FC000DD2FF60BDD2F00000A128A11A7270A1267
:100FD0008A111530F6004B30F500D130F400F40BD7
:100FE000EF2FF50BEF2FF60BEF2F00000A128A11EF
:100FF0007F270A128A11D22F83010A128A11CF2F5A
:02400E007AFF37
:00000001FF
