:0400000007EF00F016
:10000800158209ED00F078EF00F00600FACF03F052
:10001800FBCF04F0E9CF05F0EACF06F0E1CF07F017
:10002800E2CF08F0D9CF09F0DACF0AF0F3CF0BF01E
:10003800F4CF0CF0F6CF0DF0F7CF0EF0F8CF0FF0AD
:10004800F5CF10F063EC00F010C0F5FF0FC0F8FF1B
:100058000EC0F7FF0DC0F6FF0CC0F4FF0BC0F3FF96
:100068000AC0DAFF09C0D9FF08C0E2FF07C0E1FFF4
:1000780006C0EAFF05C0E9FF04C0FBFF03C0FAFFA2
:1000880015921100146E14C0CDFF11C0CFFF12C01D
:10009800CEFF9E901350D8B412009D80F28CF28E41
:1000A800120071EC00F0000E116E000E126E010EBF
:1000B800136E340E46EC00F07DEC00F0FFD79EA0E6
:1000C8001200000E026E000E016E7FEC00F0000EB2
:1000D800026E000E016E9E9012006B0ED36EF00E33
:1000E800936E000E8A6E120015901592000155EF5E
:0A00F80000F0CD8012008A701200A3
:020000040020DA
:08000000FFFFFFFFFFFFFFFF00
:020000040030CA
:0E000000FF021F1FFF8381FF0FC00FE00F40A4
:00000001FF
