:0400000007EF00F016
:10000800438293ED03F0DBEF10F0C10E0001CC6FDB
:10001800000E0001CD6FD8D1250E0001D419D8B437
:1000280005D00001D4510CEC11F0CED1000E000126
:10003800D36F000ED26F000E0001D16F05D0000102
:10004800D1850001BF4BC02BBFC0F6FFC0C0F7FF72
:10005800F86A0800F550300AD8B4F1D7BFC0F6FFE7
:10006800C0C0F7FFF86A0800F550B6EC0FF0D8A04A
:1000780046D0000E0001D36F000ED26FD2C0B9F087
:10008800D3C0BAF0000E0001BC6F0A0EBB6F52EC71
:100098000FF0B9C0D2F0BAC0D3F0D00E0001C76FCC
:1000A800FF0E0001C86FBFC0F6FFC0C0F7FFF86AB7
:1000B8000800F5500001C96FCA6B0001C751000163
:1000C800C9270001C8510001CA230001C951000114
:1000D800D2270001CA510001D3230001BF4BC02B16
:1000E800BFC0F6FFC0C0F7FFF86A0800F550B6ECCD
:1000F8000FF0D8A004D0C2D70001D18F1AD0BFC04A
:10010800F6FFC0C0F7FF0001BF4BC02BF86A08001C
:10011800F5CFD4F00001D451000AD8B41200640A13
:10012800D8B407D00D0AD8B404D0110AD8B4E4D78B
:100138004BD10001D1BF19D0CCC0D9FFCDC0DAFF57
:10014800DECFCFF0DDCFD0F0020E0001CC27000EBD
:10015800CD230001D0AF59D0030E0001D113000107
:10016800CF6DD01FD8B0D02B50D0CCC0D9FFCDC0C8
:10017800DAFFDECFCFF0DDCFD0F0020E0001CC27C2
:10018800000ECD2342D0010E0001D46F050E0001F0
:10019800D419D8B443D00001D451020D1C0EF32455
:1001A800F66EFE0EF420F76EF86A000EF8220900CB
:1001B800F5500001CF5D0900F5500001D059D8A0D5
:1001C8002DD00001D42BE2D7010E0001D46F040E0C
:1001D8000001D419D8B422D00001D451020D260E42
:1001E800F324F66EFE0EF420F76EF86A000EF8227D
:1001F8000900F5500001CF5D0900F5500001D05904
:10020800D8A00CD00001D42BE2D70001D151800B2B
:10021800000AD8B4B8D7800AD8B4D6D70001D251CA
:100228000001D311D8B40BD0D1C0C7F0030E000120
:10023800C717D8B404D00001D207D8A0D307800EBE
:100248000001D4BF7F0E0001C76F0001D251000129
:10025800D45D0001D351800A0001C759D8B00BD032
:100268000001D4510001D25F000E0001D4BFFF0E7F
:100278000001D35B05D0000E0001D36F000ED26FD2
:100288000001D1A518D0D1C0C7F0030E0001C717CF
:10029800D8B403D02D0E0CEC11F00001D25100019E
:1002A800D311D8B425D0300E0CEC11F00001D207D0
:1002B800D8A0D307F2D70001D2510001D311D8B486
:1002C8000DD0200E0CEC11F00001D207D8A0D307F6
:1002D8000001D2510001D311D8A4F3D7D1C0C7F07F
:1002E800030E0001C717D8B403D02D0E0CEC11F083
:1002F800D4C0CEF063D00001CE51020D1C0EF32401
:10030800F66EFE0EF420F76EF86A000EF822090069
:10031800F5CFB3F00A00F5CFB4F0CFC0B1F0D0C03C
:10032800B2F0D1EC0BF0B1C0B8F0B2C0B9F0000E29
:100338000001BB6F0A0EBA6F4AEC0DF00001B8510C
:10034800300F0001D46F36D0CFC0B1F0D0C0B2F0BA
:100358000001CE51020D260EF324F66EFE0EF42097
:10036800F76EF86A000EF8220900F5CFB3F00A001C
:10037800F5CFB4F0D1EC0BF00001B1510F0B000137
:10038800CB6F0001CB51010D5E0EF324F66EFE0E0D
:10039800F420F76EF86A000EF8220800F5CFD4F0C2
:1003A80009D00001D151800B000AD8B4A4D7800A23
:1003B800D8B4CAD70001D4510CEC11F00001CE0713
:1003C8000001CE29D8A4EDD7BFC0F6FFC0C0F7FF03
:1003D8000001BF4BC02BF86A0800F5CFD4F000012C
:1003E800D451D8B4120018D60F0E186E000E196E1C
:1003F80088D1250E2018D8B404D0205023EC11F051
:1004080080D1000E1F6E000E1E6E000E1D6E03D0F2
:100418001D840D4A0E2A0DC0F6FF0EC0F7FFF86ABC
:100428000800F550300AD8B4F3D70DC0F6FF0EC057
:10043800F7FFF86A0800F550EAEC10F0D8A037D0BA
:10044800000E1F6E000E1E6E1EC001F01FC002F0CF
:10045800000E046E0A0E036E50EC10F001C01EF080
:1004680002C01FF0D00E136EFF0E146E0DC0F6FF03
:100478000EC0F7FFF86A0800F550156E166A13509B
:1004880015261450162215501E2616501F220D4AE6
:100498000E2A0DC0F6FF0EC0F7FFF86A0800F550E7
:1004A800EAEC10F0D8A003D0CFD71D8E18D00DC01D
:1004B800F6FF0EC0F7FF0D4A0E2AF86A0800F5CFBE
:1004C80020F02050000AD8B41200640AD8B407D02B
:1004D8000D0AD8B404D0110AD8B4E7D712D11DBE7A
:1004E80015D018C0D9FF19C0DAFFDECF1BF0DDCF59
:1004F8001CF0020E1826000E19221CAE4AD0030E5C
:100508001D121B6C1C1ED8B01C2A43D018C0D9FF62
:1005180019C0DAFFDECF1BF0DDCF1CF0020E182663
:10052800000E192236D0010E206E050E2018D8B400
:1005380038D02050020D1C0EF324F66EFE0EF42067
:10054800F76EF86A000EF8220900F5501B5C0900E6
:10055800F5501C58D8A025D0202AE7D7010E206EC8
:10056800040E2018D8B41DD02050020D260EF324F6
:10057800F66EFE0EF420F76EF86A000EF8220900F7
:10058800F5501B5C0900F5501C58D8A00AD0202A49
:10059800E7D71D50800B000AD8B4C5D7800AD8B455
:1005A800DDD71E501F10D8B409D01DC013F0030E9C
:1005B8001316D8B403D01E06D8A01F06800E20BE7E
:1005C8007F0E136E1E50205C1F50800A1358D8B03F
:1005D80007D020501E5E000E20BEFF0E1F5A04D00A
:1005E800000E1F6E000E1E6E1DA414D01DC013F049
:1005F800030E1316D8B403D02D0E23EC11F01E50A1
:100608001F10D8B41ED0300E23EC11F01E06D8A04F
:100618001F06F5D71E501F10D8B40AD0200E23ECA1
:1006280011F01E06D8A01F061E501F10D8A4F6D71A
:100638001DC013F0030E1316D8B403D02D0E23ECEF
:1006480011F020C01AF059D01A50020D1C0EF324D4
:10065800F66EFE0EF420F76EF86A000EF822090016
:10066800F5CF03F00A00F5CF04F01BC001F01CC061
:1006780002F05EEC0EF001C008F002C009F0000EB6
:100688000B6E0A0E0A6EF7EC0EF00850300F206E53
:1006980031D01BC001F01CC002F01A50020D260E0A
:1006A800F324F66EFE0EF420F76EF86A000EF822B8
:1006B8000900F5CF03F00A00F5CF04F05EEC0EF068
:1006C80001500F0B176E1750010D5E0EF324F66ED6
:1006D800FE0EF420F76EF86A000EF8220800F5CF37
:1006E80020F008D01D50800B000AD8B4ADD7800A7E
:1006F800D8B4CFD7205023EC11F01A061A28D8A462
:10070800F1D70DC0F6FF0EC0F7FF0D4A0E2AF86AA2
:100718000800F5CF20F02050D8B412006AD60600A1
:10072800FACF23F0FBCF24F0E9CF25F0EACF26F06B
:10073800E1CF27F0E2CF28F0D9CF29F0DACF2AF09D
:10074800F3CF2BF0F4CF2CF0F6CF2DF0F7CF2EF01F
:10075800F8CF2FF0F5CF30F0F0A02FD1C00E29EC54
:1007680011F081380F0B0F0B316E3150010D0B0E4C
:10077800F324F66EFE0EF420F76EF86A000EF822E7
:100788000800F5CF3EF0410E3E18D8A43ED0CBEC81
:1007980010F0000E326E090E326401D00ED0020E37
:1007A800226E3F0E216E2B0EE82EFED7212EFCD78F
:1007B800222EFAD700F0322AEED7000E336E090E39
:1007C800336401D00ED0020E226E3F0E216E2B0E26
:1007D800E82EFED7212EFCD7222EFAD700F0332A96
:1007E800EED7000E346E090E346401D0E2D0020E4A
:1007F800226E3F0E216E2B0EE82EFED7212EFCD73F
:10080800222EFAD700F0342AEED7420E3E18D8A48A
:100818003ED035EC0FF0000E356E090E356401D070
:100828000ED0020E226E3F0E216E2B0EE82EFED742
:10083800212EFCD7222EFAD700F0352AEED7000E4B
:10084800366E090E366401D00ED0020E226E3F0EAF
:10085800216E2B0EE82EFED7212EFCD7222EFAD79A
:1008680000F0362AEED7000E376E090E376401D035
:10087800A0D0020E226E3F0E216E2B0EE82EFED760
:10088800212EFCD7222EFAD700F0372AEED7430EB6
:100898003E18D8A43ED018EC0FF0000E386E090EA2
:1008A800386401D00ED0020E226E3F0E216E2B0E40
:1008B800E82EFED7212EFCD7222EFAD700F0382AB0
:1008C800EED7000E396E090E396401D00ED0020E33
:1008D800226E3F0E216E2B0EE82EFED7212EFCD75E
:1008E800222EFAD700F0392AEED7000E3A6E090EFA
:1008F8003A6401D05ED0020E226E3F0E216E2B0E9E
:10090800E82EFED7212EFCD7222EFAD700F03A2A5D
:10091800EED7440E3E18D8A43ED087EC0EF0000E59
:100928003B6E090E3B6401D00ED0020E226E3F0EC4
:10093800216E2B0EE82EFED7212EFCD7222EFAD7B9
:1009480000F03B2AEED7000E3C6E090E3C6401D045
:100958000ED0020E226E3F0E216E2B0EE82EFED711
:10096800212EFCD7222EFAD700F03C2AEED7000E13
:100978003D6E090E3D6401D01CD0020E226E3F0E62
:10098800216E2B0EE82EFED7212EFCD7222EFAD769
:1009980000F03D2AEED72A0E3E18D8A402D0FF0058
:1009A80008D0D4EC0EF0610E0D6EFF0E0E6EF8EC52
:1009B80001F0800E29EC11F0F09030C0F5FF2FC047
:1009C800F8FF2EC0F7FF2DC0F6FF2CC0F4FF2BC098
:1009D800F3FF2AC0DAFF29C0D9FF28C0E2FF27C0E9
:1009E800E1FF26C0EAFF25C0E9FF24C0FBFF23C0C2
:1009F800FAFF43921100000E0001926F000E916FF2
:100A0800000E0001A46F000EA36F38EC11F0000E69
:100A18000001B36FD00EB26F2FEC11F0000E000181
:100A2800B36F000EB26F2FEC11F034EC11F038EC0C
:100A380011F0000E0001B36FD10EB26F2FEC11F060
:100A4800000E0001C86F050E0001C86501D010D066
:100A58000001C851010D800EF324D96E000EF42058
:100A6800DA6E010E9FEC0FF0DF6E0001C82BEBD79A
:100A7800000E9FEC0FF00001866F34EC11F082C07D
:100A8800CBF081C0CAF080C0C9F090C0C1F00F0E91
:100A98000001C117000E0001B46F100EB36F90C0B3
:100AA800B1F00001B26B35EC0AF0B1C0B9F0B2C0D8
:100AB800BAF0000E0001BC6F0A0EBB6F52EC0FF0CB
:100AC8000001C1510001B9250001C46F0001000EE9
:100AD8000001BA210001C56F000E0001B46F100EAD
:100AE800B36F8FC0B1F00001B26B35EC0AF0B1C042
:100AF800B9F0B2C0BAF0000E0001BC6F0A0EBB6FAD
:100B080052EC0FF0B9C0C1F0BAC0C2F08FC0C3F048
:100B18000F0E0001C3170001C3510001C127000EC9
:100B2800C223C4C0B9F0C5C0BAF0000E0001BC6F42
:100B38003C0EBB6F52EC0FF00001B9510001C12708
:100B48000001BA510001C223C1C08BF0C2C08CF0B1
:100B58000001000E8CBFFF0E8D6F8E6FCAC0C1F0F2
:100B68000F0E0001C117000E0001B46F100EB36F15
:100B7800CAC0B1F00001B26B35EC0AF0B1C0B9F0EF
:100B8800B2C0BAF0000E0001BC6F0A0EBB6F52EC87
:100B98000FF00001C1510001B9250001C46F000127
:100BA800000E0001BA210001C56F000E0001B46FEC
:100BB800100EB36FC9C0B1F00001B26B35EC0AF08A
:100BC800B1C0B9F0B2C0BAF0000E0001BC6F0A0E95
:100BD800BB6F52EC0FF0B9C0C1F0BAC0C2F0C9C0C7
:100BE800C3F00F0E0001C3170001C3510001C12754
:100BF800000EC223C4C0B9F0C5C0BAF0000E00018F
:100C0800BC6F3C0EBB6F52EC0FF00001B9510001F4
:100C1800C1270001BA510001C223C1C087F0C2C078
:100C280088F00001000E88BFFF0E896F8A6F8BC0A5
:100C3800C1F08CC0C2F00001C11FC21FC14BC22B42
:100C4800000187510001C1250001C66F00018851CC
:100C58000001C2210001C76F0001C7BF07D0000112
:100C6800C7510EE10001C605D8B00AD0100E000128
:100C7800C6250001C66F0E0E0001C7210001C76F0F
:100C8800C6C0BFF0C7C0C0F01200800E14EC11F04F
:100C9800AFEC0EF0A10E0001BF6FFF0E0001C06F98
:100CA80009EC00F0000E0001D76F090E0001D765AE
:100CB80001D010D0020E0001D66F3F0E0001D56F93
:100CC8002B0EE82EFED7D52FFCD7D62FFAD700014A
:100CD800D72BEBD780A228D00001A34BA42B800EE2
:100CE80014EC11F0AFEC0EF03B0E0001BF6FFF0EDD
:100CF8000001C06F09EC00F0000E0001D86F090E6A
:100D08000001D86501D01200020E0001D66F3F0E17
:100D18000001D56F2B0EE82EFED7D52FFCD7D62F86
:100D2800FAD70001D82BEBD7800E14EC11F0AFECFA
:100D38000EF0C40E0001BF6FFE0E0001C06F09EC7B
:100D480000F0000E0001D96F090E0001D96501D02D
:100D580010D0020E0001D66F3F0E0001D56F2B0E8A
:100D6800E82EFED7D52FFCD7D62FFAD70001D92BDE
:100D7800EBD7000E0001A46F000EA36F82A404D06D
:100D88000001D56BD52B02D00001D56B0001D551E0
:100D98000001A16FA26B0001A1510001A211D8B4FA
:100DA8002DD0000E0001AE6F010EAD6F00019F4BFC
:100DB800A02B800E14EC11F0AFEC0EF0E90E000140
:100DC800BF6FFF0E0001C06F09EC00F0000E0001BC
:100DD800DA6F090E0001DA6501D03DD0020E00017C
:100DE800D66F3F0E0001D56F2B0EE82EFED7D52FFC
:100DF800FCD7D62FFAD70001DA2BEBD7000E00016B
:100E0800AE6F000EAD6F00019D4B9E2B800E14EC53
:100E180011F0AFEC0EF0E00E0001BF6FFF0E000105
:100E2800C06F09EC00F0000E0001DB6F090E000135
:100E3800DB6501D010D0020E0001D66F3F0E000115
:100E4800D56F2B0EE82EFED7D52FFCD7D62FFAD785
:100E58000001DB2BEBD7CC0E0001A56F190E0001AA
:100E6800A66F1200F28E0001995100019B25000126
:100E7800D56F00019A5100019C210001D66F000135
:100E88009D510001D52700019E510001D623000184
:100E98009F510001D5253F6E0001A0510001D621C8
:100EA800406E800E14EC11F0AFEC0EF000F000F084
:100EB8006F0E0001BF6FFE0E0001C06F09EC00F05D
:100EC800C00E14EC11F0800E0001BF6FFE0E000181
:100ED800C06F09EC00F0F28E000E0001D96F090E08
:100EE8000001D96501D010D0020E0001D66F3F0E67
:100EF8000001D56F2B0EE82EFED7D52FFCD7D62FA5
:100F0800FAD70001D92BEBD7000E0001DA6F090ED2
:100F18000001DA6501D010D0020E0001D66F3F0E35
:100F28000001D56F2B0EE82EFED7D52FFCD7D62F74
:100F3800FAD70001DA2BEBD7F29EAFEC0EF000F0F7
:100F480000F0910E0001BF6FFE0E0001C06F09ECAA
:100F580000F0F28E000E0001DB6F090E0001DB6568
:100F680001D010D0020E0001D66F3F0E0001D56FE0
:100F78002B0EE82EFED7D52FFCD7D62FFAD7000197
:100F8800DB2BEBD7F29E81380F0B0F0B0001D76FCD
:100F98000001D751010D0B0EF324F66EFE0EF4205E
:100FA800F76EF86A000EF8220800F5CFD8F0300E78
:100FB8000001D819D8A475D7000E0001A06F000E43
:100FC8009F6F9FC09DF0A0C09EF09DC099F09EC0ED
:100FD8009AF099C09BF09AC09CF01200F29E800E85
:100FE80014EC11F0AFEC0EF000F000F038EC11F05A
:100FF800000E0001B36FD00EB26F2FEC11F0000E8F
:101008000001B36F000EB26F2FEC11F034EC11F049
:1010180038EC11F0000E0001B36FD10EB26F2FEC57
:1010280011F0000E0001DA6F050E0001DA6501D03B
:1010380010D00001DA51010D800EF324D96E000E94
:10104800F420DA6E010E9FEC0FF0DF6E0001DA2B50
:10105800EBD7000E9FEC0FF00001866F34EC11F017
:10106800800E14EC11F0560E0001BF6FFF0E000148
:10107800C06F85C0C1F00001C26B84C0C3F000011D
:10108800C46B09EC00F0F20E0001BF6FFE0E000108
:10109800C06F82C0C1F00001C26B81C0C3F0000103
:1010A800C46B80C0C5F00001C66B09EC00F0C00E2F
:1010B80014EC11F0A20E0001BF6FFE0E0001C06F0C
:1010C80009EC00F081380F0B0F0B0001D76F81B2CC
:1010D800FED70001D751010D0B0EF324F66EFE0E5C
:1010E800F420F76EF86A000EF8220800F5CFD8F061
:1010F800230E0001D819D8A407D082C091F081C06E
:1011080090F080C08FF01200000E0001D96F090E18
:101118000001D96501D06AD7020E0001D66F3F0ED3
:101128000001D56F2B0EE82EFED7D52FFCD7D62F72
:10113800FAD70001D92BEBD7F28E7DEC0CF0F29E9A
:10114800800E14EC11F0AFEC0EF0F10E0001BF6F41
:10115800FF0E0001C06F09EC00F0000E0001DE6F09
:10116800090E0001DE6501D010D0020E0001DD6F0E
:101178003F0E0001DC6F2B0EE82EFED7DC2FFCD7CC
:10118800DD2FFAD70001DE2BEBD7F28E01D80AD07B
:101198000500FA6E0001AB51FD6EAC51FE6EFF6AA0
:1011A800FA50120001D80AD00500FA6E0001A551C4
:1011B800FD6EA651FE6EFF6AFA50120001D80AD0E1
:1011C8000500FA6E0001A951FD6EAA51FE6EFF6A74
:1011D800FA50120001D80AD00500FA6E0001A75192
:1011E800FD6EA851FE6EFF6AFA501200030E000150
:1011F800DD6F8A0E0001DC6F550EE82EFED7DC2F5E
:10120800FCD7DD2FFAD700D00001925105E1040E7A
:101218000001915DD8A093D70001A45105E1040E07
:101228000001A35DD8A08BD7F29E800E14EC11F0BC
:10123800AFEC0EF0D70E0001BF6FFF0E0001C06FBC
:1012480009EC00F0000E0001DF6F090E0001DF65F8
:1012580001D010D0020E0001DD6F3F0E0001DC6FDF
:101268002B0EE82EFED7DC2FFCD7DD2FFAD7000196
:10127800DF2BEBD7F28EF29E1200800E14EC11F0E9
:10128800AFEC0EF0CE0E0001BF6FFF0E0001C06F75
:1012980009EC00F0000E0001D76F090E0001D765B8
:1012A80001D010D0020E0001D66F3F0E0001D56F9D
:1012B8002B0EE82EFED7D52FFCD7D62FFAD7000154
:1012C800D72BEBD7AFEC0EF080A026D00001914BC6
:1012D800922B800E14EC11F0B80E0001BF6FFF0EB8
:1012E8000001C06F09EC00F0000E0001D86F090E74
:1012F8000001D86501D01200020E0001D66F3F0E22
:101308000001D56F2B0EE82EFED7D52FFCD7D62F90
:10131800FAD70001D82BEBD7800E14EC11F0490E48
:101328000001BF6FFF0E0001C06F09EC00F0000E56
:101338000001D96F090E0001D96501D010D0020E45
:101348000001D66F3F0E0001D56F2B0EE82EFED799
:10135800D52FFCD7D62FFAD70001D92BEBD7060EFD
:101368000001AB6F220E0001AC6F000E0001926FFE
:10137800000E916F120082A204D00001D56BD52B0C
:1013880002D00001D56B0001D5510001976F986B11
:101398000001975100019811D8B42DD0000E00011A
:1013A800966F010E956F0001994B9A2BAFEC0EF0DA
:1013B800800E14EC11F07D0E0001BF6FFF0E0001CE
:1013C800C06F09EC00F0000E0001D76F090E000194
:1013D800D76501D03DD0020E0001D66F3F0E000147
:1013E800D56F2B0EE82EFED7D52FFCD7D62FFAD7E0
:1013F8000001D72BEBD7AFEC0EF0800E14EC11F0F8
:10140800AD0E0001BF6FFF0E0001C06F09EC00F0C8
:10141800000E0001D86F090E0001D86501D010D068
:10142800020E0001D66F3F0E0001D56F2B0EE82E7D
:10143800FED7D52FFCD7D62FFAD70001D82BEBD75C
:1014480000019B4B9C2B000E0001966F000E956FC0
:10145800BBEC10F0E40E0001AB6F150E0001AC6F91
:101468001200000E0001B66F0001B4AF08D00001F1
:10147800B36DB41FD8B0B42B010E0001B66F0001D4
:10148800B2AF08D00001B16DB21FD8B0B22B010EB7
:101498000001B61B000E0001B86F000EB76F000107
:1014A800B3510001B411D8B42CD0010E0001B56FAE
:1014B80006D00001D890B337B4370001B52B00012E
:1014C800B4AFF7D70001D890B737B8370001B35198
:1014D8000001B15D0001B4510001B259D8A00AD091
:1014E8000001B3510001B15F0001B4510001B25BCA
:1014F8000001B7810001D890B433B3330001B52F90
:10150800E1D70001B6510001D8B405D00001B76D8C
:10151800B81FD8B0B82BB7C0B1F0B8C0B2F012003D
:10152800000E0001B96F000EBA6F000EBB6F000EFF
:10153800BC6F0001B5510001B6110001B7110001DF
:10154800B811D8B442D0010E0001BD6F08D0000117
:10155800D890B537B637B737B8370001BD2B00017B
:10156800B8AFF5D70001D890B937BA37BB37BC3711
:101578000001B5510001B15D0001B6510001B25939
:101588000001B7510001B3590001B8510001B45925
:10159800D8A012D00001B5510001B15F0001B651C9
:1015A8000001B25B0001B7510001B35B0001B85103
:1015B8000001B45B0001B9810001D890B833B7339A
:1015C800B633B5330001BD2FCDD7B9C0B1F0BAC01D
:1015D800B2F0BBC0B3F0BCC0B4F01200800E14EC83
:1015E80011F0AFEC0EF0890E0001BF6FFF0E000185
:1015F800C06F09EC00F0000E0001D76F090E000162
:10160800D76501D010D0020E0001D66F3F0E000141
:10161800D56F2B0EE82EFED7D52FFCD7D62FFAD7AD
:101628000001D72BEBD7CBEC0FF0560E0001AB6FB8
:101638001B0E0001AC6F000E0001946F010E936F3A
:10164800AFEC0EF0800E14EC11F0950E0001BF6F98
:10165800FF0E0001C06F09EC00F0000E0001D86F0A
:10166800090E0001D86501D01200020E0001D66FE4
:101678003F0E0001D56F2B0EE82EFED7D52FFCD7D5
:10168800D62FFAD70001D82BEBD7F30E926EF30EB4
:10169800936E1E0E946E000E956E000E966E8968FF
:1016A80089948996000E8A6E000E8B6E000E8C6EE1
:1016B800080E8D6E000EC26EC168AFEC0EF000F021
:1016C80000F0F086100E0001BE6F270EBF6F000EEF
:1016D800C06F000EC16F7BEC0DF019EC0DF0F2EC51
:1016E80007F0A0EC08F0FFEC04F0BFC041F0C0C068
:1016F80042F000F000F0896889948996000E8A6E9D
:10170800000E8B6E000E8C6E080E8D6E36EC07F098
:10171800E6D700F000F0000E066E04AE06D0036CAB
:10172800041ED8B0042A010E066E02AE06D0016C63
:10173800021ED8B0022A010E061A000E086E000E0C
:10174800076E03500410D8B41CD0010E056E04D0E7
:10175800D89003360436052A04AEFAD7D89007364F
:1017680008360350015C04500258D8A005D0035035
:10177800015E0450025A0780D89004320332052EC5
:10178800EDD70650D8B404D0076C081ED8B0082A84
:1017980007C001F008C002F01200000E0001B76F88
:1017A800000EB66F0001B3510001B411D8B42CD0AB
:1017B800010E0001B56F06D00001D890B337B437D9
:1017C8000001B52B0001B4AFF7D70001D890B637A8
:1017D800B7370001B3510001B15D0001B4510001F8
:1017E800B259D8A00AD00001B3510001B15F00017D
:1017F800B4510001B25B0001B6810001D890B43346
:10180800B3330001B52FE1D7B6C0B1F0B7C0B2F01D
:101818001200800E14EC11F0AFEC0EF0F80E00017F
:10182800BF6FFF0E0001C06F09EC00F0000E000151
:10183800D76F090E0001D76501D010D0020E000144
:10184800D66F3F0E0001D56F2B0EE82EFED7D52F91
:10185800FCD7D62FFAD70001D72BEBD789948986E6
:10186800070E0001D66F580E0001D56F590EE82EED
:10187800FED7D52FFCD7D62FFAD700D089948996D2
:101888001200000E066E02AE06D0016C021ED8B021
:10189800022A010E066E04AE04D0036C041ED8B0F2
:1018A800042A03500410D8B418D0010E056E04D0D1
:1018B800D89003360436052A04AEFAD70350015CE3
:1018C80004500258D8A004D00350015E0450025AB4
:1018D800D89004320332052EF1D70650D8B404D07C
:1018E800016C021ED8B0022A01C001F002C002F049
:1018F8001200000E0001A46F000EA36FA3C091F0A8
:10190800A4C092F0AFEC0EF0800E14EC11F0630E50
:101918000001BF6FFF0E0001C06F09EC00F0000E60
:101928000001DA6F090E0001DA6501D010D0020E4D
:101938000001D96F3F0E0001D86F2B0EE82EFED79D
:10194800D82FFCD7D92FFAD70001DA2BEBD78B8009
:101958008D8007EC0EF01CEC11F012000001B26F44
:101968000001B251F00B0001B16F8C500F0B8C6E5F
:101978000001B1518C108C6E8C96140EE82EFED797
:1019880000D08C86140EE82EFED700D00001B239A4
:10199800F00B0001B26F0001B251F00B0001B16F02
:1019A8008C500F0B8C6E0001B1518C108C6E8C9684
:1019B800140EE82EFED700D08C86140EE82EFED723
:1019C80000D01200800E14EC11F0AFEC0EF0100EE7
:1019D8000001BF6FFF0E0001C06F09EC00F0000EA0
:1019E8000001D76F090E0001D76501D010D0020E93
:1019F8000001D66F3F0E0001D56F2B0EE82EFED7E3
:101A0800D52FFCD7D62FFAD70001D72BEBD717EC59
:101A180010F0000E0001B06F010EAF6FB20E0001A2
:101A2800A56F1B0E0001A66F120038EC11F0000E16
:101A38000001B36FD00EB26F2FEC11F0000E000151
:101A4800B36F000EB26F2FEC11F0000E0001B46FEF
:101A5800060E0001B46501D016D00001B451010D85
:101A68002E0EF324F66EFE0EF420F76EF86A000EC2
:101A7800F8220800F5500001B26FB36B2FEC11F09B
:101A88000001B42BE5D734EC11F012000001BA5173
:101A98000001BB11D8B426D0010E0001BC6F06D0DE
:101AA8000001D890BA37BB370001BC2B0001BBAF8F
:101AB800F7D70001BA510001B85D0001BB51000120
:101AC800B959D8A008D00001BA510001B85F000187
:101AD800BB510001B95B0001D890BB33BA33000198
:101AE800BC2FE7D7B8C0B8F0B9C0B9F01200000EE3
:101AF800C76E280EC66E000EC56E800E0001B16F4F
:101B0800960EB26F980EB36F000EB46FBEC0C2F0DF
:101B1800BFC0C3F0C0C0C4F0C1C0C5F0020ED890A9
:101B28000001C237C337C437C537E82EF8D7C2C05B
:101B3800B5F0C3C0B6F0C4C0B7F0C5C0B8F094ECF7
:101B48000AF00001B105C86E948694881200800ED0
:101B580014EC11F0AFEC0EF01F0E0001BF6FFF0E7A
:101B68000001C06F09EC00F0000E0001DA6F090EE9
:101B78000001DA6501D010D0020E0001D96F3F0EC6
:101B88000001D86F2B0EE82EFED7D82FFCD7D92FFF
:101B9800FAD70001DA2BEBD70DEC0CF0820E00011E
:101BA800AB6F120E0001AC6F1200800E14EC11F036
:101BB800AFEC0EF0010E0001BF6FFF0E0001C06F09
:101BC80009EC00F0000E0001D76F090E0001D7657F
:101BD80001D010D0020E0001D66F3F0E0001D56F64
:101BE8002B0EE82EFED7D52FFCD7D62FFAD700011B
:101BF800D72BEBD704EC10F0920E0001A56F0C0E5A
:101C08000001A66F1200800E14EC11F0AFEC0EF07C
:101C18002D0E0001BF6FFF0E0001C06F09EC00F030
:101C2800000E0001D76F090E0001D76501D010D052
:101C3800020E0001D66F3F0E0001D56F2B0EE82E65
:101C4800FED7D52FFCD7D62FFAD70001D72BEBD745
:101C5800920E0001A56F0C0E0001A66F1200026E15
:101C68000250F00B016E8C500F0B8C6E01508C10D3
:101C78008C6E8C96140EE82EFED700D08C86140E2F
:101C8800E82EFED700D00238F00B026E0250F00B9F
:101C9800016E8C500F0B8C6E01508C108C6E8C96D4
:101CA800140EE82EFED700D08C86140EE82EFED730
:101CB80000D01200000E066E000E056E03500410D0
:101CC800D8B41CD0010E076E04D0D8900336043661
:101CD800072A04AEFAD7D890053606360350015CB9
:101CE80004500258D8A005D00350015E0450025A8F
:101CF8000580D89004320332072EEDD705C001F0D5
:101D080006C002F01200800E29EC11F0D4EC0EF09F
:101D1800350E0D6EFE0E0E6E41C001F042C002F08F
:101D2800000E046E3C0E036E8FEC0BF001C00FF03A
:101D380002C010F041C001F042C002F0000E046E73
:101D48003C0E036E45EC0CF001C011F002C012F01D
:101D5800F8EC01F01200310E0001B46FB20EE82E5B
:101D6800FED7B42FFCD700F0330E14EC11F0320E6E
:101D780014EC11F0280E14EC11F00F0E14EC11F005
:101D8800060E14EC11F0010E14EC11F0310E0001E6
:101D9800B46FB20EE82EFED7B42FFCD700F01200B5
:101DA800310E046EB20EE82EFED7042EFCD700D0FA
:101DB800330E29EC11F0320E29EC11F0280E29EC23
:101DC80011F00F0E29EC11F0060E29EC11F0010E9E
:101DD80029EC11F0310E046EB20EE82EFED7042E57
:101DE800FCD700D012000A500B10D8B418D0010E3E
:101DF8000C6E04D0D8900A360B360C2A0BAEFAD7E4
:101E08000A50085C0B500958D8A004D00A50085E44
:101E18000B50095AD8900B320A320C2EF1D708C051
:101E280008F009C009F01200800E29EC11F0D4EC7A
:101E38000EF0B30E0D6EFE0E0E6E9DC00FF09EC01E
:101E480010F0F8EC01F0C00E29EC11F0E30E0D6E65
:101E5800FE0E0E6E9FC00FF0A0C010F0F8EC01F05F
:101E68001200800E29EC11F0D4EC0EF0D40E0D6E99
:101E7800FE0E0E6E99C00FF09AC010F0F8EC01F04B
:101E8800C00E29EC11F0700E0D6EFF0E0E6E9BC089
:101E98000FF09CC010F0F8EC01F012000001B951ED
:101EA8000001BB03F3CFBDF0F4CFBEF00001B95180
:101EB8000001BC03F3500001BE270001BA51000124
:101EC800BB03F3500001BE27BDC0B9F0BEC0BAF0D5
:101ED80012000001930500019411D8A40CD0EA0E59
:101EE8000001A96F200E0001AA6F000E0001946F77
:101EF800000E936F1200DA0E0001A96F1E0E00018A
:101F0800AA6F12000001AF050001B011D8A40CD0CF
:101F1800320E0001A76F210E0001A86F000E00010C
:101F2800B06F000EAF6F12000C0E0001A76F1F0EEE
:101F38000001A86F12000001B26FF9EC10F0C5861D
:101F4800F9EC10F0C9CFB3F0F9EC10F00001B25180
:101F58000001D8A402D0C58A01D0C59AC58800015D
:101F6800B35112000001B36F000E0001B26F3A0EB8
:101F78000001B36107D02F0E0001B36503D0010E35
:101F88000001B26FB2C0B1F00001B1311200898412
:101F98008996070E0001B26F580E0001B16F590EF5
:101FA800E82EFED7B12FFCD7B22FFAD700D08994EC
:101FB800899612008B8A8B9C030E0001B26F8A0EE1
:101FC8000001B16F550EE82EFED7B12FFCD7B22F06
:101FD800FAD700D08B9A8B9C12008B9A8B8C030EAD
:101FE8000001B26F8A0E0001B16F550EE82EFED7C0
:101FF800B12FFCD7B22FFAD700D08B9A8B9C120046
:102008008A948A86070E0001B26F580E0001B16FDC
:10201800590EE82EFED7B12FFCD7B22FFAD700D031
:102028008A948A9612008A848A96070E0001B26FF3
:10203800580E0001B16F590EE82EFED7B12FFCD70C
:10204800B22FFAD700D08A948A9612008D928D8486
:10205800030E0001B26F8A0E0001B16F550EE82E13
:10206800FED7B12FFCD7B22FFAD700D08D928D941E
:1020780012008D828D94030E0001B26F8A0E00014A
:10208800B16F550EE82EFED7B12FFCD7B22FFAD775
:1020980000D08D928D94120001500302F3CF05F009
:1020A800F4CF06F001500402F35006260250030252
:1020B800F350062605C001F006C002F01200000128
:1020C800950500019611D8A403D0F1EC0FF002D0C9
:1020D800DEEC0FF0DA0E0001A96F1E0E0001AA6FE8
:1020E80012000001950500019611D8A403D0DEEC7A
:1020F8000FF002D0F1EC0FF0C60E0001A96F200E10
:102108000001AA6F12000001AD050001AE11D8A4AC
:1021180003D03DEC10F002D02AEC10F00C0E0001B8
:10212800A76F1F0E0001A86F12000001AD05000186
:10213800AE11D8A403D02AEC10F002D03DEC10F078
:102148000E0E0001A76F210E0001A86F12008C90DF
:10215800070E0001B26F580E0001B16F590EE82E3C
:10216800FED7B12FFCD7B22FFAD700D012008C803F
:10217800070E0001B26F580E0001B16F590EE82E1C
:10218800FED7B12FFCD7B22FFAD700D01200800E9D
:1021980029EC11F0D4EC0EF04B0E0D6EFE0E0E6E07
:1021A8003FC00FF040C010F0F8EC01F0120000EE54
:1021B80080F0310EEE6AE806FDE1426A416A406A43
:1021C8003F6A43904392000149EF0BF0036E000E03
:1021D800026E3A0E036005D02F0E036402D0010E82
:1021E800026E02C001F001301200C7B4FED7C5CF9D
:1021F800B1F01F0E0001B117D8B41200F6D7ABEC3E
:1022080010F07E0E0001AB6F130E0001AC6F1200D0
:102218000001B36F8C840001B351B2EC0CF01200D2
:102228000001B36F8C940001B351B2EC0CF01200B2
:102238000C0E0001A76F1F0E0001A86F1200036E9D
:102248008C84035033EC0EF01200036E8C94035010
:1022580033EC0EF01200F9EC10F0B2C0C9FF120016
:10226800F9EC10F0C5841200F9EC10F0C5801200EA
:10FE0A00003132334134353642373839432A3023C8
:10FE1A00440001000A006400E803102701001000F2
:10FE2A00000100104559170431021754696D653AEB
:10FE3A002025303164206D696E20253032642073AC
:10FE4A0000546F74616C20536F727465643A202594
:10FE5A0030327800303132333435363738396162EE
:10FE6A006364656600413A546F74616C20202042D5
:10FE7A003A506F702000433A54696E2020202020A7
:10FE8A00443A54696D65005072657373203020746A
:10FE9A006F20526573657400507265737320232056
:10FEAA00746F2053746172740057697468204C61CE
:10FEBA0062656C3A202530327800626F74746F6D17
:10FECA0020446574656374656400576974682054D6
:10FEDA0061623A2025303278004E6F204C616265AB
:10FEEA006C3A202530327800253032783A25303283
:10FEFA00783A2530327800626F74746F6D207265BB
:10FF0A0073746F726500626F74746F6D2072656CC2
:10FF1A006561736500746F7020726573746F7265C2
:10FF2A00203100626F74746F6D20696E69742031BC
:10FF3A0000426F74746F6D204E6F2043616E0054DF
:10FF4A004F502044657465637465640025303278C7
:10FF5A002F2530327820202000496E697469616C3F
:10FF6A00697A696E67004E6F205461623A202530C3
:10FF7A00327800544F5020686173205461620074D3
:10FF8A006F702072656C6561736500544F50207004
:10FF9A00617373206F6E00626F74746F6D20696491
:10FFAA006C6500544F50206E6F2054616200544FAC
:10FFBA0050204E6F2043616E00544F5020696E6985
:10FFCA0074203200746F702069646C6500436F6D31
:10FFDA00706C657465004E6F206C6162656C006CB4
:10FFEA006162656C6564006C6F6F702B2B00746FB7
:06FFFA0070206377000097
:020000040020DA
:08000000FFFFFFFFFFFFFFFF00
:020000040030CA
:0E000000FF021F1EFF8381FF0FC00FE00F40A5
:00000001FF
