:0400000007EF00F016
:100008004B8260ED05F0DCEF0BF0C0EC0AF0F29EDD
:10001800000E0001B86F010EA6D037EC0CF0000EF0
:100028000001826FD00E816F2EEC0CF0000E0001E3
:10003800826F000E816F2EEC0CF033EC0CF037EC75
:100048000CF0000E0001826FD10E816F2EEC0CF0C7
:10005800000E0001C36F050E0001C36501D010D06A
:100068000001C351010DBB0EF324D96E000EF4201C
:10007800DA6E010E9DEC0BF0DF6E0001C32BEBD79F
:10008800000E9DEC0BF00001C16F33EC0CF0800EFC
:100098001AEC0CF0C70E00018E6FFF0E00018F6F77
:1000A800C0C090F00001916BBFC092F00001936B4B
:1000B80000EC02F09A0E00018E6FFF0E00018F6FA8
:1000C800BDC090F00001916BBCC092F00001936B31
:1000D800BBC094F00001956B00EC02F0C00E1AEC66
:1000E8000CF0450E00018E6FFF0E00018F6F00ECC3
:1000F80002F0000E0001C26F090E0001C26501D0B6
:1001080010D0020E0001AB6F3F0E0001AA6F2B0E3C
:10011800E82EFED7AA2FFCD7AB2FFAD70001C22BA7
:10012800EBD781380F0B0F0B0001B56F81B2FED7EB
:100138000001B551010DE10EF324F66EFE0EF42018
:10014800F76E0800F5CFB6F0230E0001B619D8A453
:100158000BD0BDC0C7F0BCC0C6F0BBC0C5F0000E18
:100168000001B86F000EB76F0001B7050001B811A4
:10017800D8B453D738EC08F037EC0CF0000E000177
:10018800826FD00E816F2EEC0CF0000E0001826F92
:10019800000E816F2EEC0CF033EC0CF037EC0CF009
:1001A800000E0001826FD10E816F2EEC0CF0000E54
:1001B8000001C46F050E0001C46501D010D0000114
:1001C800C451010DBB0EF324D96E000EF420DA6E73
:1001D800010E9DEC0BF0DF6E0001C42BEBD7000E77
:1001E8009DEC0BF00001C16F33EC0CF0BDC0C9F001
:1001F800BCC0C8F0BBC0C7F0C6C0AAF00F0E000153
:10020800AA17000E0001836F100E826FC6C080F01F
:100218000001816B7BEC07F080C088F081C089F019
:10022800000E00018B6F0A0E8A6F4EEC0BF0000176
:10023800AA51000188250001B96F0001000E0001D4
:1002480089210001BA6F000E0001836F100E826FC2
:10025800C5C080F00001816B7BEC07F080C088F09E
:1002680081C089F0000E00018B6F0A0E8A6F4EEC78
:100278000BF088C0AAF089C0ABF0C5C0ACF00F0E77
:100288000001AC170001AC510001AA27000EAB23F6
:10029800B9C088F0BAC089F0000E00018B6F3C0E1F
:1002A8008A6F4EEC0BF0000188510001AA2700016B
:1002B80089510001AB23AAC0ADF0ABC0AEF000017C
:1002C800000EAEBFFF0EAF6FB06FC8C0AAF00F0E22
:1002D8000001AA17000E0001836F100E826FC8C0BC
:1002E80080F00001816B7BEC07F080C088F081C052
:1002F80089F0000E00018B6F0A0E8A6F4EEC0BF02E
:100308000001AA51000188250001B96F0001000E03
:10031800000189210001BA6F000E0001836F100EE1
:10032800826FC7C080F00001816B7BEC07F080C052
:1003380088F081C089F0000E00018B6F0A0E8A6F69
:100348004EEC0BF088C0AAF089C0ABF0C7C0ACF087
:100358000F0E0001AC170001AC510001AA27000ED6
:10036800AB23B9C088F0BAC089F0000E00018B6FCA
:100378003C0E8A6F4EEC0BF0000188510001AA2751
:10038800000189510001AB23AAC0B1F0ABC0B2F0A3
:100398000001000EB2BFFF0EB36FB46FADC0AAF07C
:1003A800AEC0ABF00001AA1FAB1FAA4BAB2B0001DC
:1003B800B1510001AA250001C96F0001B251000125
:1003C800AB210001CA6F0001CABF07D00001CA51A2
:1003D8000EE10001C905D8B00AD0100E0001C925E8
:1003E8000001C96F0E0E0001CA210001CA6FC9C001
:1003F800A8F0CAC0A9F01200900E00019B6F000E71
:1004080000019C6FC4D1250E0001A319D8B405D0F2
:100418000001A35112EC0CF0BAD1000E0001A26F3A
:10042800000EA16F000E0001A06F05D00001A0858D
:1004380000018E4B8F2B8EC0F6FF8FC0F7FF080090
:10044800F550300AD8B4F2D78EC0F6FF8FC0F7FF48
:100458000800F550B4EC0BF0D8A044D0000E000111
:10046800A26F000EA16FA1C088F0A2C089F0000E93
:1004780000018B6F0A0E8A6F4EEC0BF088C0A1F05A
:1004880089C0A2F0D00E0001966FFF0E0001976F91
:100498008EC0F6FF8FC0F7FF0800F5500001986F77
:1004A800996B0001965100019827000197510001AE
:1004B8009923000198510001A127000199510001D9
:1004C800A22300018E4B8F2B8EC0F6FF8FC0F7FF43
:1004D8000800F550B4EC0BF0D8A004D0C4D7000144
:1004E800A08F19D08EC0F6FF8FC0F7FF00018E4B8A
:1004F8008F2B0800F5CFA3F00001A351000AD8B450
:100508001200640AD8B407D00D0AD8B404D0110A6E
:10051800D8B4E5D73CD10001A0BF19D09BC0D9FF02
:100528009CC0DAFFDECF9EF0DDCF9FF0020E000107
:100538009B27000E9C2300019FAF53D0030E0001A0
:10054800A01300019E6D9F1FD8B09F2B4AD09BC05F
:10055800D9FF9CC0DAFFDECF9EF0DDCF9FF0020E00
:1005680000019B27000E9C233CD0010E0001A36FC5
:10057800050E0001A319D8B43DD00001A351020D06
:10058800F20EF324F66EFE0EF420F76E0900F55015
:1005980000019E5D0900F55000019F59D8A02AD09E
:1005A8000001A32BE5D7010E0001A36F040E000183
:1005B800A319D8B41FD00001A351020DFC0EF324D7
:1005C800F66EFE0EF420F76E0900F55000019E5DF0
:1005D8000900F55000019F59D8A00CD00001A32BA9
:1005E800E5D70001A051800B000AD8B4BED7800A15
:1005F800D8B4D9D70001A1510001A211D8B40BD0A9
:10060800A0C096F0030E00019617D8B404D00001DC
:10061800A107D8A0A207800E0001A3BF7F0E00018A
:10062800966F0001A1510001A35D0001A251800A4B
:1006380000019659D8B00BD00001A3510001A15F69
:10064800000E0001A3BFFF0E0001A25B05D0000E43
:100658000001A26F000EA16F0001A0A518D0A0C0D4
:1006680096F0030E00019617D8B403D02D0E12ECA5
:100678000CF00001A1510001A211D8B425D0300E10
:1006880012EC0CF00001A107D8A0A207F2D70001D4
:10069800A1510001A211D8B40DD0200E12EC0CF01B
:1006A8000001A107D8A0A2070001A1510001A211D1
:1006B800D8A4F3D7A0C096F0030E00019617D8B4BB
:1006C80003D02D0E12EC0CF0A3C09DF05AD00001FF
:1006D8009D51020DF20EF324F66EFE0EF420F76E15
:1006E8000900F5CF82F00A00F5CF83F09EC080F0B4
:1006F8009FC081F00CEC09F080C087F081C088F0C1
:10070800000E00018A6F0A0E896FB4EC09F000012F
:100718008751300F0001A36F30D09EC080F09FC07A
:1007280081F000019D51020DFC0EF324F66EFE0EC1
:10073800F420F76E0900F5CF82F00A00F5CF83F0B8
:100748000CEC09F0000180510F0B00019A6F0001B9
:100758009A51010D340EF324F66EFF0EF420F76E55
:100768000800F5CFA3F009D00001A051800B000AC2
:10077800D8B4ADD7800AD8B4D0D70001A35112ECB1
:100788000CF000019D0700019D29D8A4EDD78EC06B
:10079800F6FF8FC0F7FF00018E4B8F2B0800F5CFB7
:1007A800A3F00001A351D8B412002DD60F0E186E75
:1007B800000E196E74D1250E2018D8B404D020501C
:1007C80022EC0CF06CD1000E1F6E000E1E6E000E97
:1007D8001D6E03D01D840D4A0E2A0DC0F6FF0EC0F3
:1007E800F7FF0800F550300AD8B4F4D70DC0F6FF6B
:1007F8000EC0F7FF0800F550ECEC0BF0D8A035D090
:10080800000E1F6E000E1E6E1EC001F01FC002F00B
:10081800000E046E0A0E036EC9EC0BF001C01EF048
:1008280002C01FF0D00E136EFF0E146E0DC0F6FF3F
:100838000EC0F7FF0800F550156E166A13501526FE
:100848001450162215501E2616501F220D4A0E2A25
:100858000DC0F6FF0EC0F7FF0800F550ECEC0BF0EA
:10086800D8A003D0D1D71D8E17D00DC0F6FF0EC06B
:10087800F7FF0D4A0E2A0800F5CF20F02050000A95
:10088800D8B41200640AD8B407D00D0AD8B404D07A
:10089800110AD8B4E8D703D11DBE15D018C0D9FFA6
:1008A80019C0DAFFDECF1BF0DDCF1CF0020E1826D0
:1008B800000E19221CAE44D0030E1D121B6C1C1E08
:1008C800D8B01C2A3DD018C0D9FF19C0DAFFDECF36
:1008D8001BF0DDCF1CF0020E1826000E192230D0B6
:1008E800010E206E050E2018D8B432D02050020D0B
:1008F800F20EF324F66EFE0EF420F76E0900F550A2
:100908001B5C0900F5501C58D8A022D0202AEAD731
:10091800010E206E040E2018D8B41AD02050020DF3
:10092800FC0EF324F66EFE0EF420F76E0900F55067
:100938001B5C0900F5501C58D8A00AD0202AEAD719
:100948001D50800B000AD8B4CBD7800AD8B4E0D7A2
:100958001E501F10D8B409D01DC013F0030E131673
:10096800D8B403D01E06D8A01F06800E20BE7F0E66
:10097800136E1E50205C1F50800A1358D8B007D041
:1009880020501E5E000E20BEFF0E1F5A04D0000E1F
:100998001F6E000E1E6E1DA414D01DC013F0030E92
:1009A8001316D8B403D02D0E22EC0CF01E501F10D5
:1009B800D8B41ED0300E22EC0CF01E06D8A01F06AC
:1009C800F5D71E501F10D8B40AD0200E22EC0CF018
:1009D8001E06D8A01F061E501F10D8A4F6D71DC08B
:1009E80013F0030E1316D8B403D02D0E22EC0CF01E
:1009F80020C01AF050D01A50020DF20EF324F66EF1
:100A0800FE0EF420F76E0900F5CF03F00A00F5CFCB
:100A180004F01BC001F01CC002F097EC0AF001C002
:100A280008F002C009F0000E0B6E0A0E0A6E2DECDB
:100A38000BF00850300F206E2BD01BC001F01CC0EB
:100A480002F01A50020DFC0EF324F66EFE0EF4208E
:100A5800F76E0900F5CF03F00A00F5CF04F097EC24
:100A68000AF001500F0B176E1750010D340EF324C6
:100A7800F66EFF0EF420F76E0800F5CF20F008D0D0
:100A88001D50800B000AD8B4B6D7800AD8B4D5D781
:100A9800205022EC0CF01A061A28D8A4F1D70DC061
:100AA800F6FF0EC0F7FF0D4A0E2A0800F5CF20F01A
:100AB8002050D8B412007FD60600FACF23F0FBCF1F
:100AC80024F0E9CF25F0EACF26F0E1CF27F0E2CFF6
:100AD80028F0D9CF29F0DACF2AF0F3CF2BF0F4CFD2
:100AE8002CF0F6CF2DF0F7CF2EF0F8CF2FF0F5CF72
:100AF80030F0F0A026D1C00E28EC0CF081380F0B96
:100B08000F0B316E3150010DE10EF324F66EFE0E1F
:100B1800F420F76E0800F5CF3EF0410E3E18D8A439
:100B28003ED0FBEC0BF0000E326E090E326401D0A1
:100B38000ED0020E226E3F0E216E2B0EE82EFED72F
:100B4800212EFCD7222EFAD700F0322AEED7000E3B
:100B5800336E090E336401D00ED0020E226E3F0EA2
:100B6800216E2B0EE82EFED7212EFCD7222EFAD787
:100B780000F0332AEED7000E346E090E346401D02B
:100B8800DCD0020E226E3F0E216E2B0EE82EFED711
:100B9800212EFCD7222EFAD700F0342AEED7420EA7
:100BA8003E18D8A43ED083EC0BF0000E356E090E2B
:100BB800356401D00ED0020E226E3F0E216E2B0E30
:100BC800E82EFED7212EFCD7222EFAD700F0352AA0
:100BD800EED7000E366E090E366401D00ED0020E26
:100BE800226E3F0E216E2B0EE82EFED7212EFCD74B
:100BF800222EFAD700F0362AEED7000E376E090EED
:100C0800376401D09AD0020E226E3F0E216E2B0E51
:100C1800E82EFED7212EFCD7222EFAD700F0372A4D
:100C2800EED7430E3E18D8A43ED069EC0BF0000E68
:100C3800386E090E386401D00ED0020E226E3F0EB7
:100C4800216E2B0EE82EFED7212EFCD7222EFAD7A6
:100C580000F0382AEED7000E396E090E396401D03B
:100C68000ED0020E226E3F0E216E2B0EE82EFED7FE
:100C7800212EFCD7222EFAD700F0392AEED7000E03
:100C88003A6E090E3A6401D058D0020E226E3F0E19
:100C9800216E2B0EE82EFED7212EFCD7222EFAD756
:100CA80000F03A2AEED7440E3E18D8A43ED0E5EC20
:100CB8000AF0000E3B6E090E3B6401D00ED0020E06
:100CC800226E3F0E216E2B0EE82EFED7212EFCD76A
:100CD800222EFAD700F03B2AEED7000E3C6E090E02
:100CE8003C6401D00ED0020E226E3F0E216E2B0EF8
:100CF800E82EFED7212EFCD7222EFAD700F03C2A68
:100D0800EED7000E3D6E090E3D6401D016D0020EDE
:100D1800226E3F0E216E2B0EE82EFED7212EFCD719
:100D2800222EFAD700F03D2AEED70AEC0BF0D20EAD
:100D38000D6EFF0E0E6EDAEC03F0800E28EC0CF050
:100D4800F09030C0F5FF2FC0F8FF2EC0F7FF2DC080
:100D5800F6FF2CC0F4FF2BC0F3FF2AC0DAFF29C02E
:100D6800D9FF28C0E2FF27C0E1FF26C0EAFF25C05F
:100D7800E9FF24C0FBFF23C0FAFF4B921100000ECD
:100D88000001A96F000EABD0F29E800E1AEC0CF099
:100D9800C0EC0AF0560E00018E6FFF0E00018F6F37
:100DA80000EC02F0C00E1AEC0CF0670E00018E6F1A
:100DB800FF0E00018F6F00EC02F0F28E000E0001B2
:100DC800AA6F090E0001AA6501D010D0020E000119
:100DD800A56F3F0E0001A46F2B0EE82EFED7A42F9F
:100DE800FCD7A52FFAD70001AA2BEBD7000E0001DC
:100DF800AB6F090E0001AB6501D010D0020E0001E7
:100E0800A56F3F0E0001A46F2B0EE82EFED7A42F6E
:100E1800FCD7A52FFAD70001AB2BEBD7F29E800E9B
:100E28001AEC0CF0C0EC0AF0780E00018E6FFF0E81
:100E380000018F6F00EC02F0F28E000E0001AC6F23
:100E4800090E0001AC6501D010D0020E0001A56F9B
:100E58003F0E0001A46F2B0EE82EFED7A42FFCD75F
:100E6800A52FFAD70001AC2BEBD781380F0B0F0B4E
:100E78000001A66F0001A651010DE10EF324F66EE4
:100E8800FE0EF420F76E0800F5CFA7F0300E000133
:100E9800A719D8A425D0F70E00018E6FFF0E000108
:100EA8008F6F00EC02F0000E0001AD6F090E00011B
:100EB800AD6501D010D0020E0001A56F3F0E0001F4
:100EC800A46F2B0EE82EFED7A42FFCD7A52FFAD798
:100ED8000001AD2BEBD7000E0001A96F010EA86F22
:100EE8000001A8510001A911D8A412004DD7000E85
:100EF8000001856F000183AF08D00001826D831F58
:100F0800D8B0832B010E0001856F000181AF08D096
:100F18000001806D811FD8B0812B010E0001851B57
:100F2800000E0001876F000E866F000182510001DC
:100F38008311D8B42CD0010E0001846F06D00001B3
:100F4800D890823783370001842B000183AFF7D70D
:100F58000001D89086378737000182510001805DF3
:100F68000001835100018159D8A00AD000018251A3
:100F78000001805F000183510001815B00018681CF
:100F88000001D890833382330001842FE1D7000118
:100F980085510001D8B405D00001866D871FD8B0EF
:100FA800872B86C080F087C081F01200000E0001F8
:100FB800886F000E896F000E8A6F000E8B6F00011C
:100FC8008451000185110001861100018711D8B4F0
:100FD80042D0010E00018C6F08D00001D8908437F0
:100FE80085378637873700018C2B000187AFF5D707
:100FF8000001D890883789378A378B3700018451A8
:101008000001805D00018551000181590001865170
:10101800000182590001875100018359D8A012D0DC
:10102800000184510001805F000185510001815B4E
:10103800000186510001825B000187510001835B3A
:10104800000188810001D890873386338533843343
:1010580000018C2FCDD788C080F089C081F08AC06C
:1010680082F08BC083F01200C0EC0AF0800E1AECFC
:101078000CF0D40E00018E6FFF0E00018F6F00EC94
:1010880002F0000E0001A66F090E0001A66501D04E
:1010980010D0020E0001A56F3F0E0001A46F2B0EA9
:1010A800E82EFED7A42FFCD7A52FFAD70001A62B30
:1010B800EBD782EC08F0C00E1AEC0CF0EE0E000133
:1010C8008E6FFF0E00018F6F00EC02F0000E000122
:1010D800A76F090E0001A76501D01200020E0001DA
:1010E800A56F3F0E0001A46F2B0EE82EFED7A42F8C
:1010F800FCD7A52FFAD70001A72BEBD7000E0001CC
:10110800826F090E0001826501D010D0020E000125
:10111800816F3F0E0001806F2B0EE82EFED7802FC7
:10112800FCD7812FFAD70001822BEBD7000E0001E4
:10113800836F090E0001836501D010D0020E0001F3
:10114800816F3F0E0001806F2B0EE82EFED7802F97
:10115800FCD7812FFAD70001832BEBD7000E0001B3
:10116800846F090E0001846501D01200020E00018F
:10117800816F3F0E0001806F2B0EE82EFED7802F67
:10118800FCD7812FFAD70001842BEBD7000E066E0F
:1011980004AE06D0036C041ED8B0042A010E066EF5
:1011A80002AE06D0016C021ED8B0022A010E061A41
:1011B800000E086E000E076E03500410D8B41CD041
:1011C800010E056E04D0D89003360436052A04AE05
:1011D800FAD7D890073608360350015C04500258F5
:1011E800D8A005D00350015E0450025A0780D89059
:1011F80004320332052EEDD70650D8B404D0076C5C
:10120800081ED8B0082A07C001F008C002F0120072
:10121800000E0001866F000E856F000182510001EB
:101228008311D8B42CD0010E0001846F06D00001C0
:10123800D890823783370001842B000183AFF7D71A
:101248000001D89085378637000182510001805D02
:101258000001835100018159D8A00AD000018251B0
:101268000001805F000183510001815B00018581DD
:101278000001D890833382330001842FE1D785C0E1
:1012880080F086C081F01200000E066E02AE06D015
:10129800016C021ED8B0022A010E066E04AE04D0FC
:1012A800036C041ED8B0042A03500410D8B418D014
:1012B800010E056E04D0D89003360436052A04AE14
:1012C800FAD70350015C04500258D8A004D0035048
:1012D800015E0450025AD89004320332052EF1D729
:1012E8000650D8B404D0016C021ED8B0022A01C03E
:1012F80001F002C002F012000001816F000181516B
:10130800F00B0001806F8C500F0B8C6E0001805128
:101318008C108C6E8C96140EE82EFED700D08C861E
:10132800140EE82EFED700D000018139F00B000121
:10133800816F00018151F00B0001806F8C500F0B01
:101348008C6E000180518C108C6E8C96140EE82ED9
:10135800FED700D08C86140EE82EFED700D01200DF
:101368000001895100018A11D8B426D0010E00016C
:101378008B6F06D00001D89089378A3700018B2BF4
:1013880000018AAFF7D7000189510001875D00018C
:101398008A5100018859D8A008D00001895100015C
:1013A800875F00018A510001885B0001D8908A3369
:1013B800893300018B2FE7D787C087F088C088F072
:1013C8001200000EC76E280EC66E000EC56E800E87
:1013D8000001806F960E816F980E826F000E836FEA
:1013E8008DC091F08EC092F08FC093F090C094F0B1
:1013F800020ED89000019137923793379437E82E30
:10140800F8D791C084F092C085F093C086F094C05C
:1014180087F0DAEC07F000018005C86E948694889E
:10142800120037EC0CF0000E0001826FD00E816FB5
:101438002EEC0CF0000E0001826F000E816F2EEC76
:101448000CF0000E0001836F060E0001836501D0C9
:1014580013D000018351010D040EF324F66EFF0E24
:10146800F420F76E0800F5500001816F826B2EECB6
:101478000CF00001832BE8D733EC0CF01200026E5D
:101488000250F00B016E8C500F0B8C6E01508C10BB
:101498008C6E8C96140EE82EFED700D08C86140E17
:1014A800E82EFED700D00238F00B026E0250F00B87
:1014B800016E8C500F0B8C6E01508C108C6E8C96BC
:1014C800140EE82EFED700D08C86140EE82EFED718
:1014D80000D012009268F20E936E000E946E000E09
:1014E800956E000E966E000E8A6E000E8B6E000EC4
:1014F800C26EC168C0EC0AF0F086100E00018D6F54
:10150800270E8E6F000E8F6F000E906FE5EC09F0BE
:1015180015EC0AF009EC00F0A8C041F0A9C042F0AF
:10152800C3EC06F0F7D7000E066E000E056E0350EA
:101538000410D8B41CD0010E076E04D0D89003361E
:101548000436072A04AEFAD7D89005360636035073
:10155800015C04500258D8A005D00350015E045025
:10156800025A0580D89004320332072EEDD705C001
:1015780001F006C002F01200310E0001836FB20EB6
:10158800E82EFED7832FFCD700F0330E1AEC0CF0B0
:10159800320E1AEC0CF0280E1AEC0CF00F0E1AECA6
:1015A8000CF0060E1AEC0CF0010E1AEC0CF0310ED1
:1015B8000001836FB20EE82EFED7832FFCD700F010
:1015C80012000AEC0BF00B0E0D6EFF0E0E6E41C0F2
:1015D80001F042C002F0000E046E3C0E036ECAEC2D
:1015E80008F001C00FF002C010F041C001F042C085
:1015F80002F0000E046E3C0E036E48EC09F001C0C8
:1016080011F002C012F0DAEC03F01200310E046E91
:10161800B20EE82EFED7042EFCD700D0330E28ECED
:101628000CF0320E28EC0CF0280E28EC0CF00F0E03
:1016380028EC0CF0060E28EC0CF0010E28EC0CF04F
:10164800310E046EB20EE82EFED7042EFCD700D061
:1016580012000A500B10D8B418D0010E0C6E04D02A
:10166800D8900A360B360C2A0BAEFAD70A50085C0B
:101678000B500958D8A004D00A50085E0B50095ADC
:10168800D8900B320A320C2EF1D708C008F009C0E6
:1016980009F012000001885100018A03F3CF8CF091
:1016A800F4CF8DF00001885100018B03F350000145
:1016B8008D270001895100018A03F35000018D270D
:1016C8008CC088F08DC089F012000AEC0BF0890EEE
:1016D8000D6EFF0E0E6E45C00FF046C010F0DAEC2E
:1016E80003F0C00E28EC0CF0B80E0D6EFF0E0E6E57
:1016F80043C00FF044C010F0DAEC03F012000AEC1B
:101708000BF0A90E0D6EFF0E0E6E47C00FF048C00D
:1017180010F0DAEC03F0C00E28EC0CF0E10E0D6EC0
:10172800FF0E0E6E49C00FF04AC010F0DAEC03F05D
:1017380012000001816F08EC0CF0C58608EC0CF073
:10174800C9CF82F008EC0CF0000181510001D8A447
:1017580002D0C58A01D0C59AC588000182511200FD
:101768000001826F000E0001816F3A0E0001826154
:1017780007D02F0E0001826503D0010E0001816F92
:1017880081C080F000018031120001500302F3CFC4
:1017980005F0F4CF06F001500402F350062602507B
:1017A8000302F350062605C001F006C002F012003D
:1017B8000001CA6BC96B00EE3FF00C0EEE6AE8063A
:1017C800FDE14B904B92000EF86E00016EEF0AF0AF
:1017D800036E000E026E3A0E036005D02F0E0364EE
:1017E80002D0010E026E02C001F0013012000AECB4
:1017F8000BF0210E0D6EFF0E0E6E3FC00FF040C0B5
:1018080010F0DAEC03F01200C7B4FED7C5CF80F0B1
:101818001F0E00018017D8B41200F6D70001826F9E
:101828008C840001825180EC09F012000001826F63
:101838008C940001825180EC09F01200036E8C84B4
:10184800035043EC0AF01200036E8C94035043ECEF
:101858000AF0120008EC0CF081C0C9FF120008EC75
:0E1868000CF0C584120008EC0CF0C5801200D4
:10FEE000003132334134353642373839432A3023F2
:10FEF000440001000A006400E8031027010010001C
:10FF0000000100104559170431021754696D653A14
:10FF10002025303164206D696E20253032642073D5
:10FF200000546F74616C20536F727465643A2025BD
:10FF30003032780030313233343536373839616217
:10FF400063646566005072657373202320746F20AC
:10FF5000537461727400413A546F74616C202020B4
:10FF6000423A506F702000433A54696E202020209E
:10FF700020443A54696D65005072657373203020D7
:10FF8000746F2052657365740057697468204C6102
:10FF900062656C3A202530327800253032783A2577
:10FFA0003032783A253032780057697468205461CD
:10FFB000623A2025303278004E6F204C6162656CC9
:10FFC0003A202530327800253032782F25303278AB
:10FFD00020202000496E697469616C697A696E67D6
:10FFE000004E6F205461623A202530327800436F12
:10FFF0006D706C6574650052657374617274000095
:020000040020DA
:08000000FFFFFFFFFFFFFFFF00
:020000040030CA
:0E000000FF021F1EFF8381FF0FC00FE00F40A5
:00000001FF
