:0400000079EF08F09C
:101000000048656C6C6F20576F726C6421203A2920
:101010000000026E0250F00B016E8C500F0B8C6EB4
:1010200001508C108C6E8C96100EE82EFED700D0DE
:101030008C86100EE82EFED700D00238F00B026E20
:101040000250F00B016E8C500F0B8C6E01508C1007
:101050008C6E8C96100EE82EFED700D08C86100E6B
:10106000E82EFED700D01200270E046EF50EE82EF3
:10107000FED7042EFCD700F0330E86EC08F0320EBB
:1010800086EC08F0280E86EC08F00F0E86EC08F0CF
:10109000060E86EC08F0010E86EC08F0270E046EB2
:1010A000F50EE82EFED7042EFCD700F01200060E37
:1010B000066E000E076E03D0085080EC08F004C0E6
:1010C000F6FF05C0F7FF044A052A0800F5CF08F02F
:1010D0000850D8B41200F0D7F20ED36E000E956E01
:1010E00034EC08F0010E046E100E056E57EC08F09B
:1010F000FFD7000EF86E100EF76E00016CEF08F0CF
:10110000036E8C84035009EC08F01200036E8C947B
:08111000035009EC08F0120085
:020000040020DA
:08000000FFFFFFFFFFFFFFFF00
:020000040030CA
:0E000000FF491F1EFF8381FF0FC00FE00F405E
:00000001FF
