:040000007DEF7FF021
:10FEF200E8281200E8041200086A076A066A00018C
:10FF0200ACEF7FF0026E0250F00B026E83500F0BCB
:10FF1200836E83500210836E01B002D0839401D0AD
:10FF22008384838683961200046E110E036E3A0E4A
:10FF3200E82EFED7032EFCD700D0010E016E04502E
:10FF420083EC7FF00438F00B046E010E016E045056
:10FF520083EC7FF01200C6EC7FF0050E066E030EF6
:10FF6200076E065079EC7FF0086E0850300F95EC62
:10FF72007FF0C00EE2EC7FF007507BEC7FF0086E62
:10FF82000850300F95EC7FF0FFD7000E836E000E05
:10FF9200956E110E056E3A0EE82EFED7052EFCD791
:10FFA20000D0320EE2EC7FF0280EE2EC7FF00C0E75
:10FFB200E2EC7FF0010EE2EC7FF0060EE2EC7FF065
:10FFC2001200046E110E036E3A0EE82EFED7032EB7
:10FFD200FCD700D0000E016E045083EC7FF0043891
:10FFE200F00B046E040E036E3E0EE82EFED7032EB7
:0EFFF200FCD7000E016E045083EC7FF012006D
:020000040020DA
:08000000FFFFFFFFFFFFFFFF00
:020000040030CA
:0E000000FF021F1FFF8381FF0FC00FE00F40A4
:00000001FF
