:0400000003EF0BF00F
:10100000003132334134353642373839432A3023C0
:10101000440001001000000100104559230731125F
:1010200016303132333435363738396162636465AE
:101030006600253032782F253032782F25303278EF
:1010400000253032783A253032783A25303278002F
:01105000009F
:101052000A0E146E000E156EE8D0250E1D18D8B4B7
:1010620004D01D50F7EC0AF0E0D0000E1C6E000E0A
:101072001B6E000E176E03D01784084A092A08C097
:10108200F6FF09C0F7FF0800F550300AD8B4F4D7CC
:1010920008C0F6FF09C0F7FF0800F550DFEC0AF0C0
:1010A200D8A032D0000E1C6E000E1B6E1BC001F0C9
:1010B2001CC002F0000E046E0A0E036EB9EC0AF0B8
:1010C20001C01BF002C01CF0D00E106EFF0E116E9C
:1010D20008C0F6FF09C0F7FF0800F550126E136A48
:1010E200105012261150132212501B2613501C228C
:1010F200084A092A08C0F6FF09C0F7FF0800F550A0
:10110200DFEC0AF0D8B0D2D708C0F6FF09C0F7FF6B
:10111200084A092A0800F5CF1DF01D50000AD8B46C
:101122001200780AD8A481D014C0D9FF15C0DAFF02
:10113200DECF18F0DDCF19F0020E1426000E1522B4
:10114200010E1D6E040E1D18D8B412D01D50020DD2
:10115200120EF324F66E100EF420F76E0900F5500D
:10116200185C0900F5501958D8A002D01D2AEAD7F8
:10117200800E1DBE7F0E106E1B501D5C1C50800A1F
:101182001058D8B007D01D501B5E000E1DBEFF0EBA
:101192001C5A04D0000E1C6E000E1B6E17A40BD03E
:1011A2001B501C10D8B415D0300EF7EC0AF01B06F9
:1011B200D8A01C06F5D71B501C10D8B40AD0200E9C
:1011C200F7EC0AF01B06D8A01C061B501C10D8A472
:1011D200F6D71DC01AF025D018C001F019C002F0D0
:1011E2001A50020D120EF324F66E100EF420F76E52
:1011F2000900F5CF03F00A00F5CF04F01CEC0AF069
:1012020001500F0B166E1650010D210EF324F66ECF
:10121200100EF420F76E0800F5CF1DF01D50F7EC0C
:101222000AF01A061A28D8A4D7D708C0F6FF09C0B0
:10123200F7FF084A092A0800F5CF1DF01D50D8B45F
:1012420012000BD792689368000E946E000E956E92
:10125200000E966E000E896E000E8A6E000E8B6E68
:10126200000E8C6E000E8D6E000EC26EC168F19E75
:1012720093EC0AF0100E0E6E270E0F6E000E106E1B
:10128200000E116EEFEC09F0F29E45EC0AF011EC43
:101292000BF0000E036ED00E026E08EC0BF0000E87
:1012A200036E000E026E08EC0BF00DEC0BF011EC6D
:1012B2000BF0000E036ED10E026E08EC0BF0000E66
:1012C200276E050E276401D00ED02750010D1F0E88
:1012D200F324D96E000EF420DA6E010ECCEC0AF083
:1012E200DF6E272AEED7000ECCEC0AF0256E0DEC4D
:1012F2000BF0C00EFDEC0AF0320E086E100E096EF5
:1013020025C00AF00B6A24C00CF00D6A23C00EF04F
:101312000F6A29EC08F0C00EFDEC0AF0410E086ECF
:10132200100E096E21C00AF00B6A20C00CF00D6A83
:101332001FC00EF00F6A29EC08F0000E266E630E35
:10134200266401D0A4D7210E1E6E760EE82EFED79B
:101352001E2EFCD700D0262AF2D7000E096E000EF0
:101362000A6E000E0B6E000E0C6E05500610071072
:101372000810D8B42AD0010E0D6E06D0D8900536CA
:101382000636073608360D2A08AEF8D7D890093641
:101392000A360B360C360550015C065002580750CF
:1013A200035808500458D8A009D00550015E0650D1
:1013B200025A0750035A0850045A0980D89008323A
:1013C2000732063205320D2EE1D709C001F00AC0FC
:1013D20002F00BC003F00CC004F01200000EC76E46
:1013E200280EC66E000EC56E800E016E960E026E3F
:1013F200980E036E000E046E0EC012F00FC013F0B2
:1014020010C014F011C015F0020ED8901236133627
:1014120014361536E82EF9D712C005F013C006F0BF
:1014220014C007F015C008F0AEEC09F00104C86E54
:10143200948694881200000E066E000E056E03500C
:101442000410D8B41CD0010E076E04D0D890033615
:101452000436072A04AEFAD7D8900536063603506A
:10146200015C04500258D8A005D00350015E04501C
:10147200025A0580D89004320332072EEDD705C0F8
:1014820001F006C002F0120011EC0BF0000E036E28
:10149200D00E026E08EC0BF0000E036E000E026E10
:1014A20008EC0BF0000E046E060E046401D010D09E
:1014B2000450010D1A0EF324F66E100EF420F76E8E
:1014C2000800F550026E036A08EC0BF0042AECD710
:1014D2000DEC0BF01200026E0250F00B016E8C50FC
:1014E2000F0B8C6E01508C108C6E8C96190EE82EA0
:1014F200FED78C86190EE82EFED70238F00B026E4C
:101502000250F00B016E8C500F0B8C6E01508C1040
:101512008C6E8C96190EE82EFED78C86190EE82E4C
:10152200FED71200310E046EB20EE82EFED7042E44
:10153200FCD700D0330EFDEC0AF0330EFDEC0AF0BE
:10154200320EFDEC0AF0280EFDEC0AF00F0EFDEC57
:101552000AF0060EFDEC0AF0010EFDEC0AF0310E67
:10156200046EB20EE82EFED7042EFCD700D0120075
:1015720001500302F3CF05F0F4CF06F0015004024C
:10158200F350062602500302F350062605C001F06E
:1015920006C002F01200026EEEEC0AF0C586EEEC16
:1015A2000AF0C9CF03F0EEEC0AF00250D8A402D040
:1015B200C58A01D0C59AC58803501200036E000E79
:1015C200026E3A0E036005D02F0E036402D0010EA4
:1015D200026E02C001F001301200C7B4FED7C5CFBF
:1015E20001F01F0E0116D8B41200F7D7036E8C84D7
:1015F20003506CEC0AF01200036E8C9403506CECF6
:101602000AF01200000EF86E000123EF09F0EEEC72
:101612000AF002C0C9FF1200EEEC0AF0C584120003
:08162200EEEC0AF0C580120095
:020000040020DA
:08000000FFFFFFFFFFFFFFFF00
:020000040030CA
:0E000000FF021F1EFF8381FF0FC00FE00F40A5
:00000001FF
