:0400000007EF00F016
:100008004F8293ED03F0E6EF0FF0BB0E0001C66FD1
:10001800000E0001C76FD8D1250E0001CE19D8B443
:1000280005D00001CE515FEC10F0CED1000E0001DA
:10003800CD6F000ECC6F000E0001CB6F05D0000114
:10004800CB850001B94BBA2BB9C0F6FFBAC0F7FF90
:10005800F86A0800F550300AD8B4F1D7B9C0F6FFED
:10006800BAC0F7FFF86A0800F55027EC0FF0D8A0DF
:1000780046D0000E0001CD6F000ECC6FCCC0B3F09F
:10008800CDC0B4F0000E0001B66F0A0EB56F63EC78
:100098000EF0B3C0CCF0B4C0CDF0D00E0001C16FEB
:1000A800FF0E0001C26FB9C0F6FFBAC0F7FFF86AC9
:1000B8000800F5500001C36FC46B0001C151000175
:1000C800C3270001C2510001C4230001C35100012C
:1000D800CC270001C4510001CD230001B94BBA2B34
:1000E800B9C0F6FFBAC0F7FFF86A0800F55027EC68
:1000F8000FF0D8A004D0C2D70001CB8F1AD0B9C056
:10010800F6FFBAC0F7FF0001B94BBA2BF86A08002E
:10011800F5CFCEF00001CE51000AD8B41200640A1F
:10012800D8B407D00D0AD8B404D0110AD8B4E4D78B
:100138004BD10001CBBF19D0C6C0D9FFC7C0DAFF69
:10014800DECFC9F0DDCFCAF0020E0001C627000ECF
:10015800C7230001CAAF59D0030E0001CB13000119
:10016800C96DCA1FD8B0CA2B50D0C6C0D9FFC7C0E6
:10017800DAFFDECFC9F0DDCFCAF0020E0001C627D4
:10018800000EC72342D0010E0001CE6F050E0001FC
:10019800CE19D8B443D00001CE51020DFC0EF32481
:1001A800F66EFE0EF420F76EF86A000EF8220900CB
:1001B800F5500001C95D0900F5500001CA59D8A0E1
:1001C8002DD00001CE2BE2D7010E0001CE6F040E18
:1001D8000001CE19D8B422D00001CE51020D060E6E
:1001E800F324F66EFF0EF420F76EF86A000EF8227C
:1001F8000900F5500001C95D0900F5500001CA5910
:10020800D8A00CD00001CE2BE2D70001CB51800B37
:10021800000AD8B4B8D7800AD8B4D6D70001CC51D0
:100228000001CD11D8B40BD0CBC0C1F0030E000132
:10023800C117D8B404D00001CC07D8A0CD07800ED0
:100248000001CEBF7F0E0001C16F0001CC5100013B
:10025800CE5D0001CD51800A0001C159D8B00BD044
:100268000001CE510001CC5F000E0001CEBFFF0E91
:100278000001CD5B05D0000E0001CD6F000ECC6FE4
:100288000001CBA518D0CBC0C1F0030E0001C117E7
:10029800D8B403D02D0E5FEC10F00001CC51000152
:1002A800CD11D8B425D0300E5FEC10F00001CC078A
:1002B800D8A0CD07F2D70001CC510001CD11D8B498
:1002C8000DD0200E5FEC10F00001CC07D8A0CD07B0
:1002D8000001CC510001CD11D8A4F3D7CBC0C1F097
:1002E800030E0001C117D8B403D02D0E5FEC10F037
:1002F800CEC0C8F063D00001C851020DFC0EF32433
:10030800F66EFE0EF420F76EF86A000EF822090069
:10031800F5CFADF00A00F5CFAEF0C9C0ABF0CAC05A
:10032800ACF0A3EC0AF0ABC0B2F0ACC0B3F0000E76
:100338000001B56F0A0EB46FB2EC0BF00001B251B8
:10034800300F0001CE6F36D0C9C0ABF0CAC0ACF0D8
:100358000001C851020D060EF324F66EFF0EF420BC
:10036800F76EF86A000EF8220900F5CFADF00A0022
:10037800F5CFAEF0A3EC0AF00001AB510F0B000172
:10038800C56F0001C551010D3E0EF324F66EFF0E38
:10039800F420F76EF86A000EF8220800F5CFCEF0C8
:1003A80009D00001CB51800B000AD8B4A4D7800A29
:1003B800D8B4CAD70001CE515FEC10F00001C807CD
:1003C8000001C829D8A4EDD7B9C0F6FFBAC0F7FF15
:1003D8000001B94BBA2BF86A0800F5CFCEF000013E
:1003E800CE51D8B4120018D60F0E186E000E196E22
:1003F80088D1250E2018D8B404D020508BEC10F0EA
:1004080080D1000E1F6E000E1E6E000E1D6E03D0F2
:100418001D840D4A0E2A0DC0F6FF0EC0F7FFF86ABC
:100428000800F550300AD8B4F3D70DC0F6FF0EC057
:10043800F7FFF86A0800F55027EC10F0D8A037D07D
:10044800000E1F6E000E1E6E1EC001F01FC002F0CF
:10045800000E046E0A0E036EC1EC0FF001C01EF010
:1004680002C01FF0D00E136EFF0E146E0DC0F6FF03
:100478000EC0F7FFF86A0800F550156E166A13509B
:1004880015261450162215501E2616501F220D4AE6
:100498000E2A0DC0F6FF0EC0F7FFF86A0800F550E7
:1004A80027EC10F0D8A003D0CFD71D8E18D00DC0E0
:1004B800F6FF0EC0F7FF0D4A0E2AF86A0800F5CFBE
:1004C80020F02050000AD8B41200640AD8B407D02B
:1004D8000D0AD8B404D0110AD8B4E7D712D11DBE7A
:1004E80015D018C0D9FF19C0DAFFDECF1BF0DDCF59
:1004F8001CF0020E1826000E19221CAE4AD0030E5C
:100508001D121B6C1C1ED8B01C2A43D018C0D9FF62
:1005180019C0DAFFDECF1BF0DDCF1CF0020E182663
:10052800000E192236D0010E206E050E2018D8B400
:1005380038D02050020DFC0EF324F66EFE0EF42087
:10054800F76EF86A000EF8220900F5501B5C0900E6
:10055800F5501C58D8A025D0202AE7D7010E206EC8
:10056800040E2018D8B41DD02050020D060EF32416
:10057800F66EFF0EF420F76EF86A000EF8220900F6
:10058800F5501B5C0900F5501C58D8A00AD0202A49
:10059800E7D71D50800B000AD8B4C5D7800AD8B455
:1005A800DDD71E501F10D8B409D01DC013F0030E9C
:1005B8001316D8B403D01E06D8A01F06800E20BE7E
:1005C8007F0E136E1E50205C1F50800A1358D8B03F
:1005D80007D020501E5E000E20BEFF0E1F5A04D00A
:1005E800000E1F6E000E1E6E1DA414D01DC013F049
:1005F800030E1316D8B403D02D0E8BEC10F01E503A
:100608001F10D8B41ED0300E8BEC10F01E06D8A0E8
:100618001F06F5D71E501F10D8B40AD0200E8BEC39
:1006280010F01E06D8A01F061E501F10D8A4F6D71B
:100638001DC013F0030E1316D8B403D02D0E8BEC87
:1006480010F020C01AF059D01A50020DFC0EF324F5
:10065800F66EFE0EF420F76EF86A000EF822090016
:10066800F5CF03F00A00F5CF04F01BC001F01CC061
:1006780002F096EC0CF001C008F002C009F0000E80
:100688000B6E0A0E0A6EEDEC0DF00850300F206E5E
:1006980031D01BC001F01CC002F01A50020D060E2A
:1006A800F324F66EFF0EF420F76EF86A000EF822B7
:1006B8000900F5CF03F00A00F5CF04F096EC0CF032
:1006C80001500F0B176E1750010D3E0EF324F66EF6
:1006D800FF0EF420F76EF86A000EF8220800F5CF36
:1006E80020F008D01D50800B000AD8B4ADD7800A7E
:1006F800D8B4CFD720508BEC10F01A061A28D8A4FB
:10070800F1D70DC0F6FF0EC0F7FF0D4A0E2AF86AA2
:100718000800F5CF20F02050D8B412006AD60600A1
:10072800FACF23F0FBCF24F0E9CF25F0EACF26F06B
:10073800E1CF27F0E2CF28F0D9CF29F0DACF2AF09D
:10074800F3CF2BF0F4CF2CF0F6CF2DF0F7CF2EF01F
:10075800F8CF2FF0F5CF30F0F0A02FD1C00E91ECEC
:1007680010F081380F0B0F0B316E3150010DEB0E6D
:10077800F324F66EFE0EF420F76EF86A000EF822E7
:100788000800F5CF3EF0410E3E18D8A43ED017EC35
:1007980010F0000E326E090E326401D00ED0020E37
:1007A800226E3F0E216E2B0EE82EFED7212EFCD78F
:1007B800222EFAD700F0322AEED7000E336E090E39
:1007C800336401D00ED0020E226E3F0E216E2B0E26
:1007D800E82EFED7212EFCD7222EFAD700F0332A96
:1007E800EED7000E346E090E346401D0E2D0020E4A
:1007F800226E3F0E216E2B0EE82EFED7212EFCD73F
:10080800222EFAD700F0342AEED7420E3E18D8A48A
:100818003ED02BEC0EF0000E356E090E356401D07B
:100828000ED0020E226E3F0E216E2B0EE82EFED742
:10083800212EFCD7222EFAD700F0352AEED7000E4B
:10084800366E090E366401D00ED0020E226E3F0EAF
:10085800216E2B0EE82EFED7212EFCD7222EFAD79A
:1008680000F0362AEED7000E376E090E376401D035
:10087800A0D0020E226E3F0E216E2B0EE82EFED760
:10088800212EFCD7222EFAD700F0372AEED7430EB6
:100898003E18D8A43ED00EEC0EF0000E386E090EAD
:1008A800386401D00ED0020E226E3F0E216E2B0E40
:1008B800E82EFED7212EFCD7222EFAD700F0382AB0
:1008C800EED7000E396E090E396401D00ED0020E33
:1008D800226E3F0E216E2B0EE82EFED7212EFCD75E
:1008E800222EFAD700F0392AEED7000E3A6E090EFA
:1008F8003A6401D05ED0020E226E3F0E216E2B0E9E
:10090800E82EFED7212EFCD7222EFAD700F03A2A5D
:10091800EED7440E3E18D8A43ED0E7EC0CF0000EFB
:100928003B6E090E3B6401D00ED0020E226E3F0EC4
:10093800216E2B0EE82EFED7212EFCD7222EFAD7B9
:1009480000F03B2AEED7000E3C6E090E3C6401D045
:100958000ED0020E226E3F0E216E2B0EE82EFED711
:10096800212EFCD7222EFAD700F03C2AEED7000E13
:100978003D6E090E3D6401D01CD0020E226E3F0E62
:10098800216E2B0EE82EFED7212EFCD7222EFAD769
:1009980000F03D2AEED72A0E3E18D8A402D0FF0058
:1009A80008D0CAEC0DF0DC0E0D6EFF0E0E6EF8ECE2
:1009B80001F0800E91EC10F0F09030C0F5FF2FC0E0
:1009C800F8FF2EC0F7FF2DC0F6FF2CC0F4FF2BC098
:1009D800F3FF2AC0DAFF29C0D9FF28C0E2FF27C0E9
:1009E800E1FF26C0EAFF25C0E9FF24C0FBFF23C0C2
:1009F800FAFF4F921100000E0001946F000E936FE2
:100A0800000E0001A06F000E9F6FA0EC10F0000E0A
:100A18000001AD6FD00EAC6F97EC10F0000E000126
:100A2800AD6F000EAC6F97EC10F09CEC10F0A0ECE2
:100A380010F0000E0001AD6FD10EAC6F97EC10F006
:100A4800000E0001C26F050E0001C26501D010D072
:100A58000001C251010D800EF324D96E000EF4205E
:100A6800DA6E010EFAEC0EF0DF6E0001C22BEBD746
:100A7800000EFAEC0EF00001866F9CEC10F082C0BC
:100A8800C5F081C0C4F080C0C3F090C0BBF00F0EA9
:100A98000001BB17000E0001AE6F100EAD6F90C0C5
:100AA800ABF00001AC6B5FEC09F0ABC0B3F0ACC0CD
:100AB800B4F0000E0001B66F0A0EB56F63EC0EF0CD
:100AC8000001BB510001B3250001BE6F0001000EFB
:100AD8000001B4210001BF6F000E0001AE6F100EBF
:100AE800AD6F8FC0ABF00001AC6B5FEC09F0ABC031
:100AF800B3F0ACC0B4F0000E0001B66F0A0EB56FCB
:100B080063EC0EF0B3C0BBF0B4C0BCF08FC0BDF056
:100B18000F0E0001BD170001BD510001BB27000EDB
:100B2800BC23BEC0B3F0BFC0B4F0000E0001B66F66
:100B38003C0EB56F63EC0EF00001B3510001BB270A
:100B48000001B4510001BC23BBC08BF0BCC08CF0C9
:100B58000001000E8CBFFF0E8D6F8E6FC4C0BBF0FE
:100B68000F0E0001BB17000E0001AE6F100EAD6F27
:100B7800C4C0ABF00001AC6B5FEC09F0ABC0B3F0E4
:100B8800ACC0B4F0000E0001B66F0A0EB56F63EC8E
:100B98000EF00001BB510001B3250001BE6F00013A
:100BA800000E0001B4210001BF6F000E0001AE6FFE
:100BB800100EAD6FC3C0ABF00001AC6B5FEC09F079
:100BC800ABC0B3F0ACC0B4F0000E0001B66F0A0EB3
:100BD800B56F63EC0EF0B3C0BBF0B4C0BCF0C3C0DB
:100BE800BDF00F0E0001BD170001BD510001BB276C
:100BF800000EBC23BEC0B3F0BFC0B4F0000E0001AD
:100C0800B66F3C0EB56F63EC0EF00001B3510001F6
:100C1800BB270001B4510001BC23BBC087F0BCC096
:100C280088F00001000E88BFFF0E896F8A6F8BC0A5
:100C3800BBF08CC0BCF00001BB1FBC1FBB4BBC2B66
:100C4800000187510001BB250001C06F00018851D8
:100C58000001BC210001C16F0001C1BF07D0000124
:100C6800C1510EE10001C005D8B00AD0100E000134
:100C7800C0250001C06F0E0E0001C1210001C16F27
:100C8800C0C0B9F0C1C0BAF0120048EC0EF001D8EB
:100C98000AD00500FA6E0001A751FD6EA851FE6E3C
:100CA800FF6AFA50120001D80AD00500FA6E000156
:100CB800A551FD6EA651FE6EFF6AFA50120001D8CA
:100CC8000AD00500FA6E0001A151FD6EA251FE6E18
:100CD800FF6AFA50120001D80AD00500FA6E000126
:100CE800A351FD6EA451FE6EFF6AFA501200FFEC8C
:100CF80004F0B9C091F0BAC092F00B0E0001D06FA9
:100D0800C80E0001CF6FB40EE82EFED7CF2FFCD748
:100D1800D02FFAD700F08990A30E0001CF6F550E9F
:100D2800E82EFED7CF2FFCD789800B0E0001D06F9D
:100D3800C80E0001CF6FB40EE82EFED7CF2FFCD718
:100D4800D02FFAD700F0899089820C0E0001D06F5D
:100D58006B0E0001CF6F090EE82EFED7CF2FFCD700
:100D6800D02FFAD700D0899289800001A05105E1DF
:100D7800140E00019F5DD8A02DD00001945105E10B
:100D8800140E0001935DD8A025D0800E67EC10F0FA
:100D9800A5EC0DF0F60E0001B96FFF0E0001BA6F59
:100DA80009EC00F0000E0001D16F090E0001D165B9
:100DB80001D01200020E0001D06F3F0E0001CF6F6C
:100DC8002B0EE82EFED7CF2FFCD7D02FFAD7000155
:100DD800D12BEBD70001925105E1AD0E0001915DD9
:100DE800D8A055D7800E67EC10F0A5EC0DF0EB0EEF
:100DF8000001B96FFF0E0001BA6F09EC00F0000E98
:100E08000001D26F090E0001D26501D01200020E56
:100E18000001D06F3F0E0001CF6F2B0EE82EFED7DA
:100E2800CF2FFCD7D02FFAD70001D22BEBD7000158
:100E38009551000197250001CF6F000196510001DF
:100E480098210001D06F000199510001CF270001BE
:100E58009A510001D02300019B510001CF25476E14
:100E680000019C510001D021486E800E67EC10F003
:100E7800A5EC0DF000F000F04F0E0001B96FFF0E69
:100E88000001BA6F09EC00F0C00E67EC10F0710EAB
:100E98000001B96FFF0E0001BA6F09EC00F0F28E85
:100EA800000E0001D36F090E0001D36501D010D0E8
:100EB800020E0001D06F3F0E0001CF6F2B0EE82EFF
:100EC800FED7CF2FFCD7D02FFAD70001D32BEBD7E3
:100ED800000E0001D46F090E0001D46501D010D0B6
:100EE800020E0001D06F3F0E0001CF6F2B0EE82ECF
:100EF800FED7CF2FFCD7D02FFAD70001D42BEBD7B2
:100F0800F29EA5EC0DF000F000F0820E0001B96F22
:100F1800FF0E0001BA6F09EC00F0F28E000E00011E
:100F2800D56F090E0001D56501D010D0020E000161
:100F3800D06F3F0E0001CF6F2B0EE82EFED7CF2FBC
:100F4800FCD7D02FFAD70001D52BEBD7F29E8138EA
:100F58000F0B0F0B0001D16F0001D151010DEB0EEA
:100F6800F324F66EFE0EF420F76EF86A000EF822EF
:100F78000800F5CFD2F0300E0001D219D8A475D7E9
:100F8800000E00019C6F000E9B6F9BC099F09CC0E7
:100F98009AF099C095F09AC096F095C097F096C0CF
:100FA80098F01200F29E800E67EC10F0A5EC0DF0A0
:100FB80000F000F0A0EC10F0000E0001AD6FD00EB4
:100FC800AC6F97EC10F0000E0001AD6F000EAC6F27
:100FD80097EC10F09CEC10F0A0EC10F0000E000163
:100FE800AD6FD10EAC6F97EC10F0000E0001D46F0E
:100FF800050E0001D46501D010D00001D451010DB7
:10100800800EF324D96E000EF420DA6E010EFAEC8D
:101018000EF0DF6E0001D42BEBD7000EFAEC0EF0C9
:101028000001866F9CEC10F0800E67EC10F0D10E7A
:101038000001B96FFF0E0001BA6F85C0BBF0000157
:10104800BC6B84C0BDF00001BE6B09EC00F0C20EA1
:101058000001B96FFF0E0001BA6F82C0BBF000013A
:10106800BC6B81C0BDF00001BE6B80C0BFF0000149
:10107800C06B09EC00F0C00E67EC10F0930E000195
:10108800B96FFF0E0001BA6F09EC00F081380F0B41
:101098000F0B0001D16F81B2FED70001D151010DB4
:1010A800EB0EF324F66EFE0EF420F76EF86A000ECF
:1010B800F8220800F5CFD2F0230E0001D219D8A4E7
:1010C80007D082C091F081C090F080C08FF01200EC
:1010D800000E0001D36F090E0001D36501D06AD755
:1010E800020E0001D06F3F0E0001CF6F2B0EE82ECD
:1010F800FED7CF2FFCD7D02FFAD70001D32BEBD7B1
:1011080084A204D000019F4BA02B1200000E000106
:10111800A06F000E9F6F000E00019E6F000E9D6F66
:10112800F28E000E0001B36F000EB26F0001B3BF64
:1011380008D00001B35123E1140E0001B25DD8B00C
:101148001ED0110E0001AF6F3A0EE82EFED7AF2F5A
:10115800FCD700F0010E0001B06F00019D510001A5
:101168009E11D8B482B403D0000E0001B06FB0C095
:101178009DF000019E6B0001B24BB32BD7D7000E38
:101188000001AA6F010EA96F17EC0BF0000E000109
:10119800B36F000EB26F0001B3BF08D00001B351A6
:1011A80023E1140E0001B25DD8B01ED0110E00016B
:1011B800AF6F3A0EE82EFED7AF2FFCD700F0010E26
:1011C8000001B16F00019D5100019E11D8B482B495
:1011D80003D0000E0001B16FB1C09DF000019E6BFD
:1011E8000001B24BB32BD7D7260E0001A16F180E02
:1011F8000001A26F12004B044C10D8A42BD0D4ECE1
:101208000FF0AEEC0FF0620E0001AD6F650EE82E28
:10121800FED7AD2FFCD700D088EC0FF0030E0001ED
:10122800AE6F8A0E0001AD6F550EE82EFED7AD2FBA
:10123800FCD7AE2FFAD700D0AEEC0FF0620E00014B
:10124800AD6F650EE82EFED7AD2FFCD700D088EC29
:101258000FF02AD09BEC0FF088EC0FF0620E000123
:10126800AD6F650EE82EFED7AD2FFCD700D0AEECE3
:101278000FF0030E0001AE6F8A0E0001AD6F550E20
:10128800E82EFED7AD2FFCD7AE2FFAD700D088ECCA
:101298000FF0620E0001AD6F650EE82EFED7AD2F80
:1012A800FCD700D0AEEC0FF0620E0001A36F1D0E4C
:1012B8000001A46F1200000E0001B06F0001AEAF74
:1012C80008D00001AD6DAE1FD8B0AE2B010E0001E5
:1012D800B06F0001ACAF08D00001AB6DAC1FD8B047
:1012E800AC2B010E0001B01B000E0001B26F000E06
:1012F800B16F0001AD510001AE11D8B42CD0010E70
:101308000001AF6F06D00001D890AD37AE370001AD
:10131800AF2B0001AEAFF7D70001D890B137B23785
:101328000001AD510001AB5D0001AE510001AC59A7
:10133800D8A00AD00001AD510001AB5F0001AE5149
:101348000001AC5B0001B1810001D890AE33AD3330
:101358000001AF2FE1D70001B0510001D8B405D08A
:101368000001B16DB21FD8B0B22BB1C0ABF0B2C0A2
:10137800ACF01200000E0001B36F000EB46F000E47
:10138800B56F000EB66F0001AF510001B01100013A
:10139800B1110001B211D8B442D0010E0001B76FEB
:1013A80008D00001D890AF37B037B137B237000155
:1013B800B72B0001B2AFF5D70001D890B337B437D7
:1013C800B537B6370001AF510001AB5D0001B05130
:1013D8000001AC590001B1510001AD590001B251F1
:1013E8000001AE59D8A012D00001AF510001AB5F87
:1013F8000001B0510001AC5B0001B1510001AD5BCF
:101408000001B2510001AE5B0001B3810001D89028
:10141800B233B133B033AF330001B72FCDD7B3C038
:10142800ABF0B4C0ACF0B5C0ADF0B6C0AEF01200D1
:10143800000E926EF30E936E1F0E946E000E956E54
:10144800070E966EF00E896E000E8A6E000E8B6E79
:10145800000E8C6E000E8D6E000EC26EC168F19E7D
:10146800A5EC0DF000F000F0F086100E0001B86F4A
:10147800270EB96F000EBA6F000EBB6FE3EC0BF0CE
:1014880081EC0BF0D6EC07F049EC06F0FFEC04F029
:10149800B9C049F0BAC04AF000F000F0F00E896E09
:1014A800000E8A6E000E8B6E000E8C6E000E8D6E16
:1014B8001BEC07F0E7D700F000F0000E066E04AE54
:1014C80006D0036C041ED8B0042A010E066E02AEC4
:1014D80006D0016C021ED8B0022A010E061A000EB0
:1014E800086E000E076E03500410D8B41CD0010E0D
:1014F800056E04D0D89003360436052A04AEFAD710
:10150800D890073608360350015C04500258D8A01A
:1015180005D00350015E0450025A0780D890043267
:101528000332052EEDD70650D8B404D0076C081E38
:10153800D8B0082A07C001F008C002F01200000E57
:101548000001B16F000EB06F0001AD510001AE1186
:10155800D8B42CD0010E0001AF6F06D00001D8908E
:10156800AD37AE370001AF2B0001AEAFF7D70001A2
:10157800D890B037B1370001AD510001AB5D000123
:10158800AE510001AC59D8A00AD00001AD510001FC
:10159800AB5F0001AE510001AC5B0001B0810001FE
:1015A800D890AE33AD330001AF2FE1D7B0C0ABF068
:1015B800B1C0ACF01200000E066E02AE06D0016C8F
:1015C800021ED8B0022A010E066E04AE04D0036CC7
:1015D800041ED8B0042A03500410D8B418D0010E41
:1015E800056E04D0D89003360436052A04AEFAD71F
:1015F8000350015C04500258D8A004D00350015E87
:101608000450025AD89004320332052EF1D70650FE
:10161800D8B404D0016C021ED8B0022A01C001F06F
:1016280002C002F01200000E0001AE6F000EAD6F96
:101638000001AE512DE1040E0001AD5DD8B01200DD
:101648008A86080E0001AB6F230EE82EFED7AB2F5B
:10165800FCD78A963A0E0001AB6FC90EE82EFED76A
:10166800AB2FFCD700D0010E0001AC6F00019D51DB
:1016780000019E11D8B482B403D0000E0001AC6FF3
:10168800ACC09DF000019E6B0001AD4BAE2BD0D7D6
:1016980012000001AC6F0001AC51F00B0001AB6F00
:1016A8008C500F0B8C6E0001AB518C108C6E8C968D
:1016B800140EE82EFED700D08C86140EE82EFED726
:1016C80000D00001AC39F00B0001AC6F0001AC5147
:1016D800F00B0001AB6F8C500F0B8C6E0001AB51FF
:1016E8008C108C6E8C96140EE82EFED700D08C864B
:1016F800140EE82EFED700D01200A0EC10F0000E59
:101708000001AD6FD00EAC6F97EC10F0000E000129
:10171800AD6F000EAC6F97EC10F0000E0001AE6FCD
:10172800060E0001AE6501D016D00001AE51010DC4
:101738000E0EF324F66EFF0EF420F76EF86A000E14
:10174800F8220800F5500001AC6FAD6B97EC10F073
:101758000001AE2BE5D79CEC10F012000001B4514B
:101768000001B511D8B426D0010E0001B66F06D01D
:101778000001D890B437B5370001B62B0001B5AFDA
:10178800F7D70001B4510001B25D0001B551000165
:10179800B359D8A008D00001B4510001B25F0001CC
:1017A800B5510001B35B0001D890B533B4330001E3
:1017B800B62FE7D7B2C0B2F0B3C0B3F01200000E34
:1017C800C76E280EC66E000EC56E800E0001AB6F88
:1017D800960EAC6F980EAD6F000EAE6FB8C0BCF031
:1017E800B9C0BDF0BAC0BEF0BBC0BFF0020ED89001
:1017F8000001BC37BD37BE37BF37E82EF8D7BCC0AD
:10180800AFF0BDC0B0F0BEC0B1F0BFC0B2F0BEEC2A
:1018180009F00001AB05C86E948694881200010E89
:101828000001AB6F00019D5100019E11D8B482B434
:1018380003D0000E0001AB6FABC09DF000019E6BA2
:10184800F29E00019D5100019E11D8B408D0000EEF
:101858004E6E010E4D6E00019B4B9C2B07D0000E67
:101868004E6E000E4D6E0001994B9A2B1E0E000114
:10187800A16F1A0E0001A26F1200026E0250F00B47
:10188800016E8C500F0B8C6E01508C108C6E8C96E8
:10189800140EE82EFED700D08C86140EE82EFED744
:1018A80000D00238F00B026E0250F00B016E8C5023
:1018B8000F0B8C6E01508C108C6E8C96140EE82ECB
:1018C800FED700D08C86140EE82EFED700D012006A
:1018D8003F044010D8A410D075EC0FF062EC0FF064
:1018E800620E0001AD6F650EE82EFED7AD2FFCD756
:1018F80000D03CEC0FF00FD04FEC0FF03CEC0FF0A9
:10190800620E0001AD6F650EE82EFED7AD2FFCD735
:1019180000D062EC0FF0220E0001A56F1E0E000130
:10192800A66F1200000E066E000E056E035004101E
:10193800D8B41CD0010E076E04D0D89003360436F4
:10194800072A04AEFAD7D890053606360350015C4C
:1019580004500258D8A005D00350015E0450025A22
:101968000580D89004320332072EEDD705C001F068
:1019780006C002F0120082A204D00001AD6BAD2BAC
:1019880002D00001AD6B0001AD51456E466A45506D
:101998004610D8B408D0000E446E010E436E000104
:1019A800954B962B07D00001974B982B000E446E51
:1019B800000E436E07EC10F0300E0001A76F1D0EED
:1019C8000001A86F1200800E91EC10F0CAEC0DF027
:1019D800150E0D6EFF0E0E6E49C001F04AC002F0E2
:1019E800000E046E3C0E036E61EC0AF001C00FF0AD
:1019F80002C010F049C001F04AC002F0000E046EA7
:101A08003C0E036EDFEC0AF001C011F002C012F0C8
:101A1800F8EC01F0120017EC0BF0040E0001B06FA7
:101A2800CF0E0001AF6F010EE82EFED7AF2FFCD707
:101A3800B02FFAD700D017EC0BF0AC0E0001A16F55
:101A4800200E0001A26F070E0001B06F580E0001B2
:101A5800AF6F590EE82EFED7AF2FFCD7B02FFAD7AD
:101A680000D01200000E0001AD6F000EAC6F000137
:101A7800AD511CE10C0E0001AC5DD8B012008A8497
:101A8800030E0001AB6F970EE82EFED7AB2FFCD7E5
:101A980000D08A943F0E0001AB6F550EE82EFED79A
:101AA800AB2FFCD70001AC4BAD2BE1D71200000ED9
:101AB8000001AD6F000EAC6F0001AD511CE1060EC8
:101AC8000001AC5DD8B012008A84080E0001AB6F2B
:101AD800230EE82EFED7AB2FFCD78A943A0E0001CE
:101AE800AB6FC90EE82EFED7AB2FFCD700D0000194
:101AF800AC4BAD2BE1D71200000E0001AD6F000E0C
:101B0800AC6F0001AD511CE10F0E0001AC5DD8B007
:101B180012008A86030E0001AB6F970EE82EFED7DF
:101B2800AB2FFCD700D08A963F0E0001AB6F550E45
:101B3800E82EFED7AB2FFCD70001AC4BAD2BE1D77D
:101B48001200310E0001AE6FB20EE82EFED7AE2F96
:101B5800FCD700F0330E67EC10F0320E67EC10F093
:101B6800280E67EC10F00F0E67EC10F0060E67EC0D
:101B780010F0010E67EC10F0310E0001AE6FB20EDE
:101B8800E82EFED7AE2FFCD700F01200310E046EFF
:101B9800B20EE82EFED7042EFCD700D0330E91ECFF
:101BA80010F0320E91EC10F0280E91EC10F00F0EA0
:101BB80091EC10F0060E91EC10F0010E91EC10F083
:101BC800310E046EB20EE82EFED7042EFCD700D0DC
:101BD80012000A500B10D8B418D0010E0C6E04D0A5
:101BE800D8900A360B360C2A0BAEFAD70A50085C86
:101BF8000B500958D8A004D00A50085E0B50095A57
:101C0800D8900B320A320C2EF1D708C008F009C060
:101C180009F01200800E91EC10F0CAEC0DF0600E85
:101C28000D6EFF0E0E6E99C00FF09AC010F0F8EC12
:101C380001F0C00E91EC10F0B30E0D6EFF0E0E6E9B
:101C48009BC00FF09CC010F0F8EC01F01200800E61
:101C580091EC10F0CAEC0DF0A40E0D6EFF0E0E6E96
:101C680095C00FF096C010F0F8EC01F0C00E91ECA2
:101C780010F0DE0E0D6EFF0E0E6E97C00FF098C0BE
:101C880010F0F8EC01F01200000E0001946F000E45
:101C9800936F000E0001A06F000E9F6F89808984EA
:101CA8008C80000E0001926F000E916F6FEC10F0A7
:101CB8007DEC10F076EC10F084EC10F012000001CE
:101CC800B3510001B503F3CFB7F0F4CFB8F000017A
:101CD800B3510001B603F3500001B8270001B45115
:101CE8000001B503F3500001B827B7C0B3F0B8C07E
:101CF800B4F01200A5EC0DF082A00AD0FC0E000191
:101D0800A76F1C0E0001A86F0001934B942B1200C3
:101D18006C0E0001A76F200E0001A86F000E0001D5
:101D2800946F000E936F12005BEC0DF05BEC0DF0FE
:101D3800040E0001AF6FCF0E0001AE6F010EE82E4A
:101D4800FED7AE2FFCD7AF2FFAD700D09A0E0001DE
:101D5800A76F200E0001A86F12000001A90500015D
:101D6800AA11D8A40CD0C40E0001A36F1D0E000147
:101D7800A46F000E0001AA6F000EA96F1200620E78
:101D88000001A36F1D0E0001A46F1200430444104C
:101D9800D8A407D0000E406E010E3F6E4FEC0FF036
:101DA80006D0000E406E000E3F6E75EC0FF0D80E98
:101DB8000001A56F180E0001A66F12004D044E1009
:101DC800D8A407D0000E4C6E010E4B6E9BEC0FF0A2
:101DD80006D0000E4C6E000E4B6ED4EC0FF0FE0ECB
:101DE8000001A36F110E0001A46F12000001AC6F77
:101DF80043EC10F0C58643EC10F0C9CFADF043ECCE
:101E080010F00001AC510001D8A402D0C58A01D05D
:101E1800C59AC5880001AD51120041044210D8A4EA
:101E28000BD0940E0001A56F1D0E0001A66F000EC9
:101E3800426E000E416E1200220E0001A56F1E0EAA
:101E48000001A66F12000001AD6F000E0001AC6F1B
:101E58003A0E0001AD6107D02F0E0001AD6503D029
:101E6800010E0001AC6FACC0ABF00001AB31120049
:101E78008B9E8B8C030E0001AC6F8A0E0001AB6F3A
:101E8800550EE82EFED7AB2FFCD7AC2FFAD700D0D3
:101E98008B9E8B9C12008B9E8B8C040E0001AC6F6A
:101EA800CF0E0001AB6F010EE82EFED7AB2FFCD78B
:101EB800AC2FFAD700D08B9E8B9C12008B8E8B9CFC
:101EC800030E0001AC6F8A0E0001AB6F550EE82EB1
:101ED800FED7AB2FFCD7AC2FFAD700D08B9E8B9CAC
:101EE80012008B8E8B9C040E0001AC6FCF0E00018C
:101EF800AB6F010EE82EFED7AB2FFCD7AC2FFAD76D
:101F080000D08B9E8B9C12008C928986030E000158
:101F1800AC6F8A0E0001AB6F550EE82EFED7AB2FC3
:101F2800FCD7AC2FFAD700D08C92899612008C92ED
:101F38008986040E0001AC6FCF0E0001AB6F010E55
:101F4800E82EFED7AB2FFCD7AC2FFAD700D08C9257
:101F5800899612008C828996030E0001AC6FAA0E36
:101F68000001AB6FCD0EE82EFED7AB2FFCD7AC2F00
:101F7800FAD700D08C928996120001500302F3CF51
:101F880005F0F4CF06F001500402F3500626025083
:101F98000302F350062605C001F006C002F0120045
:101FA8008C828996050E0001AC6F0F0E0001AB6F95
:101FB800F10EE82EFED7AB2FFCD7AC2FFAD78C92B8
:101FC8008996120000EE80F02B0EEE6AE806FDE11D
:101FD80000EE3FF0100EEE6AE806FDE14F904F92DA
:101FE80000011CEF0AF08C900D0E0001AC6FAF0ED3
:101FF8000001AB6FB60EE82EFED7AB2FFCD7AC2F87
:10200800FAD700F012008C800D0E0001AC6FAF0EF5
:102018000001AB6FB60EE82EFED7AB2FFCD7AC2F66
:10202800FAD700F01200800E91EC10F0CAEC0DF017
:102038002B0E0D6EFF0E0E6E47C00FF048C010F04D
:10204800F8EC01F01200036E000E026E3A0E036007
:1020580005D02F0E036402D0010E026E02C001F0FB
:1020680001301200F7EC0FF07E0E0001A76F190E79
:102078000001A86F000E426E010E416E1200C7B437
:10208800FED7C5CFABF01F0E0001AB17D8B41200B6
:10209800F6D736EC0DF0FC0E0001A76F1C0E000100
:1020A800A86F120080EC0DF0080E0001A16F110E50
:1020B8000001A26F12000001AD6F8C840001AD51C8
:1020C8004DEC0BF012000001AD6F8C940001AD5186
:1020D8004DEC0BF01200FC0E0001A76F1C0E000166
:1020E800A86F1200220E0001A56F1E0E0001A66F38
:1020F8001200080E0001A16F110E0001A26F12005C
:10210800620E0001A36F1D0E0001A46F1200036E82
:102118008C84035041EC0CF01200036E8C94035035
:1021280041EC0CF0120043EC10F0ACC0C9FF1200F7
:1021380043EC10F0C584120043EC10F0C580120087
:10FEEA00003132334134353642373839432A3023E8
:10FEFA00440001000A006400E80310270100100012
:10FF0A00000100104559170431021754696D653A0A
:10FF1A002025303164206D696E20253032642073CB
:10FF2A0000546F74616C20536F727465643A2025B3
:10FF3A003032640030313233343536373839616221
:10FF4A006364656600413A546F74616C20202042F4
:10FF5A003A506F70200057697468204C6162656C72
:10FF6A003A202530326400433A54696E202020201A
:10FF7A0020443A54696D65005072657373203020CD
:10FF8A00746F205265736574005072657373202311
:10FF9A0020746F2053746172740057697468205416
:10FFAA0061623A2025303264004E6F204C616265EE
:10FFBA006C3A202530326400253032783A253032C6
:10FFCA00783A2530327800253032782F2530327849
:10FFDA00202020004E6F205461623A20253032647E
:10FFEA000054696D6520697320757000436F6D70E8
:06FFFA006C657465000057
:020000040020DA
:08000000FFFFFFFFFFFFFFFF00
:020000040030CA
:0E000000FF021F1EFF8381FF0FC00FE00F40A5
:00000001FF
