:040000007FEF09F095
:101000000001001000000100103031323334353659
:10101000373839616263646566002020202000252E
:051020007825780000B6
:101026000A0E0F6E000E106E6AD0250E1518D8B473
:1010360004D0155073EC09F062D0000E0E6E08C095
:10104600F6FF09C0F7FF084A092A0800F5CF15F090
:101056001550000AD8B41200780AD8A450D00FC090
:10106600D9FF10C0DAFFDECF12F0DDCF13F0020E8B
:101076000F26000E1022010E156E040E1518D8B498
:1010860012D01550020D010EF324F66E100EF42048
:10109600F76E0900F550125C0900F5501358D8A0F8
:1010A60002D0152AEAD715C014F025D012C001F0D7
:1010B60013C002F01450020D010EF324F66E100E4A
:1010C600F420F76E0900F5CF03F00A00F5CF04F01F
:1010D600EBEC08F001500F0B116E1150010D090ECB
:1010E600F324F66E100EF420F76E0800F5CF15F017
:1010F600155073EC09F014061428D8A4D7D708C0E5
:10110600F6FF09C0F7FF084A092A0800F5CF15F0CF
:101116001550D8B4120089D7F00ED36E9268936832
:10112600000E946E000E956E000E966E000E896E81
:10113600000E8A6E000E8B6E000E8C6E000E8D6E8B
:10114600F19E3BEC09F0000EC26E0B0EC16E000E56
:10115600B56EB496C08E030E61EC09F0800E79EC84
:1011660009F01F0E086E100E096EC4CF0AF00B6A46
:10117600C3CF0CF00D6A13EC08F01B0E086E100EB0
:10118600096E13EC08F0020E61EC09F01F0E086EF2
:10119600100E096EC4CF0AF00B6AC3CF0CF00D6AAD
:1011A60013EC08F01A0E086E100E096E13EC08F018
:1011B600000E176E090E176401D0CDD7FF0E166EFE
:1011C6008A0EE82EFED7162EFCD700D0172AF2D7A5
:1011D600000E066E000E056E03500410D8B41CD027
:1011E600010E076E04D0D89003360436072A04AEE3
:1011F600FAD7D890053606360350015C04500258DB
:10120600D8A005D00350015E0450025A0580D8903C
:1012160004320332072EEDD705C001F006C002F0F6
:101226001200026E0250F00B016E8C500F0B8C6E8A
:1012360001508C108C6E8C96140EE82EFED78C8680
:10124600140EE82EFED70238F00B026E0250F00B99
:10125600016E8C500F0B8C6E01508C108C6E8C9620
:10126600140EE82EFED78C86140EE82EFED712003A
:10127600270E046EF50EE82EFED7042EFCD700F0DE
:10128600330E79EC09F0330E79EC09F0320E79EC75
:1012960009F0280E79EC09F00F0E79EC09F0060E2C
:1012A60079EC09F0010E79EC09F0270E046EF50EC3
:1012B600E82EFED7042EFCD700F01200026E024480
:1012C600E846FC0BC26EC280C28207D00D0E016ECC
:1012D600FC0EE82EFED7012EFCD7C2A21200F6D7CE
:1012E600036E8C84035014EC09F01200036E8C9488
:1012F600035014EC09F01200000EF86E00018FEF97
:0213060008F0ED
:020000040020DA
:08000000FFFFFFFFFFFFFFFF00
:020000040030CA
:0E000000FF021F1EFF8381FF0FC00FE00F40A5
:00000001FF
