:0400000083EF0BF08F
:10100000003132334134353642373839432A3023C0
:10101000440001001000000100104559230731125F
:1010200016303132333435363738396162636465AE
:10103000660020202020202020202020202020208A
:101040000025303278253032782F25303278200054
:10105000253032783A253032783A2530327800001F
:101060000A0E146E000E156EE8D0250E1D18D8B4A9
:1010700004D01D5077EC0BF0E0D0000E1C6E000E7B
:101080001B6E000E176E03D01784084A092A08C089
:10109000F6FF09C0F7FF0800F550300AD8B4F4D7BE
:1010A00008C0F6FF09C0F7FF0800F55050EC0BF040
:1010B000D8A032D0000E1C6E000E1B6E1BC001F0BB
:1010C0001CC002F0000E046E0A0E036E2AEC0BF038
:1010D00001C01BF002C01CF0D00E106EFF0E116E8E
:1010E00008C0F6FF09C0F7FF0800F550126E136A3A
:1010F000105012261150132212501B2613501C227E
:10110000084A092A08C0F6FF09C0F7FF0800F55091
:1011100050EC0BF0D8B0D2D708C0F6FF09C0F7FFEB
:10112000084A092A0800F5CF1DF01D50000AD8B45E
:101130001200780AD8A481D014C0D9FF15C0DAFFF4
:10114000DECF18F0DDCF19F0020E1426000E1522A6
:10115000010E1D6E040E1D18D8B412D01D50020DC4
:10116000120EF324F66E100EF420F76E0900F550FF
:10117000185C0900F5501958D8A002D01D2AEAD7EA
:10118000800E1DBE7F0E106E1B501D5C1C50800A11
:101190001058D8B007D01D501B5E000E1DBEFF0EAC
:1011A0001C5A04D0000E1C6E000E1B6E17A40BD030
:1011B0001B501C10D8B415D0300E77EC0BF01B066A
:1011C000D8A01C06F5D71B501C10D8B40AD0200E8E
:1011D00077EC0BF01B06D8A01C061B501C10D8A4E3
:1011E000F6D71DC01AF025D018C001F019C002F0C2
:1011F0001A50020D120EF324F66E100EF420F76E44
:101200000900F5CF03F00A00F5CF04F0B7EC0AF0BF
:1012100001500F0B166E1650010D210EF324F66EC1
:10122000100EF420F76E0800F5CF1DF01D5077EC7E
:101230000BF01A061A28D8A4D7D708C0F6FF09C0A1
:10124000F7FF084A092A0800F5CF1DF01D50D8B451
:1012500012000BD7F00ED36E000E926EF20E936E4C
:10126000000E946E000E956E000E966E000E896E46
:10127000000E8A6E000E8B6E000E8C6E000E8D6E50
:10128000000EC26EC16807EC0BF0100E0E6E270E3A
:101290000F6E000E106E000E116E5FEC0AF0F29EE3
:1012A000E0EC0AF0550E896E550E8A6E550E8B6E67
:1012B0008C808C928D808D92000E296E000E286E8F
:1012C00091EC0BF0000E036ED00E026E88EC0BF06A
:1012D000000E036E000E026E88EC0BF08DEC0BF02E
:1012E00091EC0BF0000E036ED10E026E88EC0BF049
:1012F000000E2A6E050E2A6401D00ED02A50010D70
:101300001F0EF324D96E000EF420DA6E010E3DECB0
:101310000BF0DF6E2A2AEED7000E3DEC0BF0256EA7
:101320008DEC0BF0800E7DEC0BF0410E086E100E74
:10133000096E25C00AF00B6A24C00CF00D6A23C0A8
:101340000EF00F6A30EC08F0500E086E100E096EA9
:1013500021C00AF00B6A20C00CF00D6A1FC00EF00D
:101360000F6A30EC08F0C00E7DEC0BF0320E086E08
:10137000100E096E30EC08F0800E7DEC0BF0C00E04
:101380007DEC0BF0000E296E000E286E29BE06D0F3
:10139000295022E1C80E285CD8B01ED081A216D0F8
:1013A00081380F0B0F0B266E81B2FED700F000F0D4
:1013B0002650010D010EF324F66E100EF420F76E88
:1013C0000800F5CF27F0275077EC0BF0030E5FEC09
:1013D0000BF0284A292ADAD7891E8A1E8B1E8CB068
:1013E00003D01E6A1E2A01D01E6A8C501E18FE0BE6
:1013F0001E188C6E8CB203D01E6A1E2A01D01E6A83
:101400001E468C501E18FD0B1E188C6E8DB003D01E
:101410001E6A1E2A01D01E6A8D501E18FE0B1E1851
:101420008D6E8DB203D01E6A1E2A01D01E6A1E4622
:101430008D501E18FD0B1E188D6E42D7000E096EC2
:10144000000E0A6E000E0B6E000E0C6E055006109C
:1014500007100810D8B42AD0010E0D6E06D0D8900F
:1014600005360636073608360D2A08AEF8D7D89066
:1014700009360A360B360C360550015C0650025808
:101480000750035808500458D8A009D00550015EF1
:101490000650025A0750035A0850045A0980D8903F
:1014A00008320732063205320D2EE1D709C001F0AD
:1014B0000AC002F00BC003F00CC004F01200000ED2
:1014C000C76E280EC66E000EC56E800E016E960E9B
:1014D000026E980E036E000E046E0EC012F00FC066
:1014E00013F010C014F011C015F0020ED89012368F
:1014F000133614361536E82EF9D712C005F013C08E
:1015000006F014C007F015C008F01EEC0AF0010444
:10151000C86E948694881200026E0250F00B016E21
:101520008C500F0B8C6E01508C108C6E8C96140EA0
:10153000E82EFED700D08C86140EE82EFED700D001
:101540000238F00B026E0250F00B016E8C500F0B44
:101550008C6E01508C108C6E8C96140EE82EFED77B
:1015600000D08C86140EE82EFED700D01200000E9C
:10157000066E000E056E03500410D8B41CD0010E88
:10158000076E04D0D89003360436072A04AEFAD783
:10159000D890053606360350015C04500258D8A096
:1015A00005D00350015E0450025A0580D8900432E1
:1015B0000332072EEDD705C001F006C002F012007D
:1015C00091EC0BF0000E036ED00E026E88EC0BF067
:1015D000000E036E000E026E88EC0BF0000E046E1F
:1015E000060E046401D010D00450010D1A0EF3242D
:1015F000F66E100EF420F76E0800F550026E036AC6
:1016000088EC0BF0042AECD78DEC0BF01200310EB5
:10161000046EB20EE82EFED7042EFCD700D0330E97
:101620007DEC0BF0320E7DEC0BF0280E7DEC0BF018
:101630000F0E7DEC0BF0060E7DEC0BF0010E7DEC39
:101640000BF0310E046EB20EE82EFED7042EFCD73E
:1016500000D0120001500302F3CF05F0F4CF06F0E2
:1016600001500402F350062602500302F3500626EE
:1016700005C001F006C002F01200026E6EEC0BF025
:10168000C5866EEC0BF0C9CF03F06EEC0BF0025088
:10169000D8A402D0C58A01D0C59AC58803501200CB
:1016A000036E000E026E3A0E036005D02F0E036427
:1016B00002D0010E026E02C001F001301200026E73
:1016C00008D0110E016E3A0EE82EFED7012EFCD77F
:1016D00000D002060228D8B41200F3D7C7B4FED750
:1016E000C5CF01F01F0E0116D8B41200F7D7036E54
:1016F0008C8403508CEC0AF01200036E8C9403501F
:101700008CEC0AF01200000EF86E00012AEF09F0CE
:101710006EEC0BF002C0C9FF12006EEC0BF0C5843A
:0A17200012006EEC0BF0C580120001
:020000040020DA
:08000000FFFFFFFFFFFFFFFF00
:020000040030CA
:0E000000FF021F1EFF8381FF0FC00FE00F40A5
:00000001FF
