:04000000FCEF7BF0A6
:10F7F800000194EF7EF0BD86BD84CA849494120003
:10F80800BA86BA84CA80CA92CA849492120009C07D
:10F8180001F00AC002F0036A8E0E046E000E056E37
:10F8280064EC7DF001C009F002C00AF003C00BF0DF
:10F838001200000E186E16AE06D0156C161ED8B043
:10F84800162A010E186E15C001F016C002F0036AE0
:10F858008E0E046E18C005F064EC7DF001C015F042
:10F8680002C016F003C017F01200800E016E960E4B
:10F87800026E980E036E000E046E42C011F043C073
:10F8880012F044C013F045C014F0020ED89011369F
:10F89800123613361436E82EF9D711C005F012C007
:10F8A80006F013C007F014C008F0BBEC7DF001C0EF
:10F8B8000FF002C010F01200800E016E960E026E5C
:10F8C800980E036E000E046E0FC013F010C014F0F3
:10F8D80011C015F012C016F0020ED8901336143667
:10F8E80015361636E82EF9D7020ED8901336143688
:10F8F80015361636E82EF9D713C005F014C006F0F1
:10F9080015C007F016C008F0BBEC7DF00104CB6E03
:10F918000FC042F010C043F011C044F012C045F0CF
:10F928001200800E016E960E026E980E036E000E87
:10F93800046E0FC013F010C014F011C015F012C0FF
:10F9480016F0020ED8901336143615361636E82EF1
:10F95800F9D7020ED8901336143615361636E82E17
:10F96800F9D713C005F014C006F015C007F016C08B
:10F9780008F0BBEC7DF00104CB6E0FC042F010C064
:10F9880043F011C044F012C045F01200040E3A5C76
:10F99800D8B0120039EC7CF00FC015F010C016F08A
:10F9A8001DEC7CF015C01EF016C01FF017C020F02B
:10F9B800C00E0F6E7F0E106E440E116E39C009F026
:10F9C8003AC00AF00BEC7CF009C00CF00AC00DF04C
:10F9D8000BC00EF021EC7EF00CC01BF00DC01CF02B
:10F9E8000EC01DF00CEC7FF01BC02AF01CC02BF0E1
:10F9F8001DC02CF086EC7FF02AC039F02BC03AF0FD
:10FA0800BD9A39A002D0BD8801D0BD9839C03BF05D
:10FA18003AC03CF0D8903C323B32D8903C323B3232
:10FA28003B50BE6E1200040E3A5CD8B0120039EC9E
:10FA38007CF00FC015F010C016F01DEC7CF015C05E
:10FA48001EF016C01FF017C020F0C00E0F6E7F0EFC
:10FA5800106E440E116E39C009F03AC00AF00BEC72
:10FA68007CF009C00CF00AC00DF00BC00EF021ECC0
:10FA78007EF00CC01BF00DC01CF00EC01DF00CEC8D
:10FA88007FF01BC02AF01CC02BF01DC02CF086ECA8
:10FA98007FF02AC039F02BC03AF0BA9A39A002D0C8
:10FAA800BA8801D0BA9839C03BF03AC03CF0D89037
:10FAB8003C323B32D8903C323B323B50BB6E12005A
:10FAC8000450D8B405D0015002100310D8A40CD0AB
:10FAD800000E016E000E026E000E036E1200042A64
:10FAE800D890033202320132000E0114066E000E65
:10FAF8000214076EFE0E0314086E06500710081055
:10FB0800D8B40CD0ECD7042A010E0126000E02222C
:10FB1800000E0322D890033202320132000E011483
:10FB2800066E000E0214076EFF0E0314086E0650D0
:10FB380007100810D8B406D0E6D70406D8900136C6
:10FB48000236033602BE03D0020E0460F6D704A0C4
:10FB5800029ED8900432045003120550D8A4038E94
:10FB680001C001F002C002F003C003F01200000E51
:10FB78000A6E08AE0AD0081E071E061E056C000E87
:10FB8800062207220822010E0A6E04AE0AD0041EBD
:10FB9800031E021E016C000E022203220422010E23
:10FBA8000A1A000E0B6E000E0C6E000E0D6E000E83
:10FBB8000E6E0550061007100810D8B42AD0010E92
:10FBC800096E06D0D8900536063607360836092A53
:10FBD80008AEF8D7D8900B360C360D360E360550D1
:10FBE800015C065002580750035808500458D8A022
:10FBF80009D00550015E0650025A0750035A0850B2
:10FC0800045A0B80D8900832073206320532092E82
:10FC1800E1D70A50D8B408D00E1E0D1E0C1E0B6C6E
:10FC2800000E0C220D220E220BC001F00CC002F0B7
:10FC38000DC003F00EC004F012000EC012F0136ADB
:10FC4800146A0D34123601E313801250196E1950DC
:10FC5800D8A407D0000E0C6E000E0D6E000E0E6EAE
:10FC6800120011C012F0136A146A1034123601E33C
:10FC7800138012501A6E1A50D8A407D0000E0C6EBA
:10FC8800000E0D6E000E0E6E1200000E166E000EA7
:10FC9800176E000E186E1A50890F195E0EC01AF0F2
:10FCA80011501A1A800E1A160D8EFF0E0C16FF0E22
:10FCB8000D16000E0E16108EFF0E0F16FF0E1016E4
:10FCC800000E1116180E156ED890163617361836FF
:10FCD8000F500C5C10500D5811500E58D8A007D07A
:10FCE8000F500C5E10500D5A11500E5A1680D890B5
:10FCF8000C360D360E36152EE7D716C001F017C094
:10FD080002F018C003F019C004F01AC005F064EC42
:10FD18007DF001C00CF002C00DF003C00EF012001F
:10FD2800000E3F6E000E3E6E000E416E000E406EDD
:10FD3800880E0F6E130E106E000E116E000E126EEE
:10FD480060EC7CF0880E0F6E130E106E000E116EB4
:10FD5800000E126E95EC7CF09568000E936E000E06
:10FD68003A6E000E396ECAEC7CF0000E3A6E000E48
:10FD7800396E17EC7DF0FFEC7BF004EC7CF083B07F
:10FD88000CD0E80E3E5C030E3F58D8B006D00A0EE1
:10FD98003E243E6E000E3F203F6E83B20AD03E5096
:10FDA8003F10D8B406D0F60E3E243E6EFF0E3F201C
:10FDB8003F6E83B40CD0E80E405C030E4158D8B0B7
:10FDC80006D00A0E4024406E000E4120416E83B6D4
:10FDD8000AD040504110D8B406D0F60E4024406EE8
:10FDE800FF0E4120416E3EC039F03FC03AF0CAECE8
:10FDF8007CF040C039F041C03AF017EC7DF0A30E1A
:10FE08003D6E550EE82EFED73D2EFCD700F0B7D735
:10FE18001DC021F0226A236A1C34213601E32280A6
:10FE28002150246E2450D8A407D0000E1B6E000E5B
:10FE38001C6E000E1D6E120020C021F0226A236A7B
:10FE48001F34213601E322802150296E2950D8A47D
:10FE580007D0000E1B6E000E1C6E000E1D6E1200E9
:10FE680029507B0F24261DC029F02050291A800E06
:10FE780029161C8E1F8EFF0E1E16FF0E1F16000E53
:10FE88002016000E256E000E266E000E276E070E39
:10FE9800286E1BA006D01E5025261F502622205053
:10FEA8002722D8901D321C321B32D8901E361F369E
:10FEB8002036282EEED7090E286E1BA006D01E501D
:10FEC80025261F50262220502722D8901D321C326A
:10FED8001B32D890273226322532282EEED725C05D
:10FEE80001F026C002F027C003F024C004F029C0A6
:10FEF80005F064EC7DF001C01BF002C01CF003C0EB
:10FF08001DF012002CC02EF02F6A306A2B342E36CA
:10FF180001E32F802E50386E3850D8A409D0000E37
:10FF28002A6E000E2B6E000E2C6E000E2D6E120027
:10FF3800170E2E6E2AC02FF02BC030F02CC031F0D7
:10FF48002E28326E04D0D890313230322F32322EF1
:10FF5800FAD72F50336E2B8EFF0E2A16FF0E2B1654
:10FF6800000E2C162A50346E2B50356E2C50366EDF
:10FF7800376A8E0E385E38AE16D03850800A8F0F2A
:10FF8800D8B009D0000E2A6E000E2B6E000E2C6E13
:10FF9800000E2D6E1200D890373236323532343298
:10FFA800383EF9D715D0170E38640FD0000E2A6ED8
:10FFB800000E2B6E000E2C6E000E2D6E1200D890C7
:10FFC800343635363636373638063850D8A4F7D76B
:10FFD8003350D8B408D0371E361E351E346C000E88
:10FFE80035223622372234C02AF035C02BF036C0ED
:08FFF8002CF037C02DF01200BF
:020000040020DA
:08000000FFFFFFFFFFFFFFFF00
:020000040030CA
:0E000000FF021F1EFF8381FF0FC00FE00F40A5
:00000001FF
