:040000007FEF08F096
:10100000003132334134353642373839432A3023C0
:0310100044000099
:10101400026E0250F00B016E8C500F0B8C6E01505F
:101024008C108C6E8C96100EE82EFED700D08C8619
:10103400100EE82EFED700D00238F00B026E0250DC
:10104400F00B016E8C500F0B8C6E01508C108C6E5B
:101054008C96100EE82EFED700D08C86100EE82E4B
:10106400FED700D01200000E946E000E956E9368A9
:10107400000E8A6E000E8B6E000EC26EC1685CECB0
:1010840008F081A2FED781380F0B0F0B056E81B2D9
:10109400FED700F000F00550010D010EF324F66EAA
:1010A400100EF420F76E0800F5CF06F0065086EC1B
:1010B40008F0E7D7270E046EF50EE82EFED7042EAF
:1010C400FCD700F0330E8CEC08F0320E8CEC08F0F8
:1010D400280E8CEC08F00F0E8CEC08F0060E8CEC4D
:1010E40008F0010E8CEC08F0270E046EF50EE82EC5
:1010F400FED7042EFCD700F01200000EF86E100E7E
:10110400F76E000135EF08F0036E8C8403500AEC8F
:1011140008F01200036E8C9403500AEC08F01200DD
:020000040020DA
:08000000FFFFFFFFFFFFFFFF00
:020000040030CA
:0E000000FF021F1EFF8381FF0FC00FE00F40A5
:00000001FF
